{
  "contractName": "Campaign",
  "abi": [
    {
      "constant": true,
      "inputs": [
        {
          "name": "",
          "type": "address"
        }
      ],
      "name": "approvers",
      "outputs": [
        {
          "name": "",
          "type": "bool"
        }
      ],
      "payable": false,
      "stateMutability": "view",
      "type": "function"
    },
    {
      "constant": false,
      "inputs": [],
      "name": "unpause",
      "outputs": [],
      "payable": false,
      "stateMutability": "nonpayable",
      "type": "function"
    },
    {
      "constant": true,
      "inputs": [
        {
          "name": "account",
          "type": "address"
        }
      ],
      "name": "isPauser",
      "outputs": [
        {
          "name": "",
          "type": "bool"
        }
      ],
      "payable": false,
      "stateMutability": "view",
      "type": "function"
    },
    {
      "constant": true,
      "inputs": [],
      "name": "paused",
      "outputs": [
        {
          "name": "",
          "type": "bool"
        }
      ],
      "payable": false,
      "stateMutability": "view",
      "type": "function"
    },
    {
      "constant": false,
      "inputs": [],
      "name": "renouncePauser",
      "outputs": [],
      "payable": false,
      "stateMutability": "nonpayable",
      "type": "function"
    },
    {
      "constant": true,
      "inputs": [
        {
          "name": "",
          "type": "uint256"
        }
      ],
      "name": "requests",
      "outputs": [
        {
          "name": "description",
          "type": "string"
        },
        {
          "name": "value",
          "type": "uint256"
        },
        {
          "name": "recipient",
          "type": "address"
        },
        {
          "name": "isComplete",
          "type": "bool"
        },
        {
          "name": "approvalCount",
          "type": "uint256"
        }
      ],
      "payable": false,
      "stateMutability": "view",
      "type": "function"
    },
    {
      "constant": false,
      "inputs": [
        {
          "name": "account",
          "type": "address"
        }
      ],
      "name": "addPauser",
      "outputs": [],
      "payable": false,
      "stateMutability": "nonpayable",
      "type": "function"
    },
    {
      "constant": true,
      "inputs": [],
      "name": "approversCount",
      "outputs": [
        {
          "name": "",
          "type": "uint256"
        }
      ],
      "payable": false,
      "stateMutability": "view",
      "type": "function"
    },
    {
      "constant": false,
      "inputs": [],
      "name": "pause",
      "outputs": [],
      "payable": false,
      "stateMutability": "nonpayable",
      "type": "function"
    },
    {
      "constant": true,
      "inputs": [],
      "name": "owner",
      "outputs": [
        {
          "name": "",
          "type": "address"
        }
      ],
      "payable": false,
      "stateMutability": "view",
      "type": "function"
    },
    {
      "inputs": [
        {
          "name": "minimumAmount",
          "type": "uint256"
        },
        {
          "name": "creator",
          "type": "address"
        },
        {
          "name": "imgHash",
          "type": "string"
        }
      ],
      "payable": false,
      "stateMutability": "nonpayable",
      "type": "constructor"
    },
    {
      "anonymous": false,
      "inputs": [
        {
          "indexed": false,
          "name": "description",
          "type": "string"
        },
        {
          "indexed": false,
          "name": "value",
          "type": "uint256"
        },
        {
          "indexed": false,
          "name": "recipient",
          "type": "address"
        }
      ],
      "name": "RequestCreated",
      "type": "event"
    },
    {
      "anonymous": false,
      "inputs": [
        {
          "indexed": false,
          "name": "recipient",
          "type": "address"
        },
        {
          "indexed": false,
          "name": "value",
          "type": "uint256"
        }
      ],
      "name": "RequestFinalized",
      "type": "event"
    },
    {
      "anonymous": false,
      "inputs": [
        {
          "indexed": false,
          "name": "account",
          "type": "address"
        }
      ],
      "name": "Paused",
      "type": "event"
    },
    {
      "anonymous": false,
      "inputs": [
        {
          "indexed": false,
          "name": "account",
          "type": "address"
        }
      ],
      "name": "Unpaused",
      "type": "event"
    },
    {
      "anonymous": false,
      "inputs": [
        {
          "indexed": true,
          "name": "account",
          "type": "address"
        }
      ],
      "name": "PauserAdded",
      "type": "event"
    },
    {
      "anonymous": false,
      "inputs": [
        {
          "indexed": true,
          "name": "account",
          "type": "address"
        }
      ],
      "name": "PauserRemoved",
      "type": "event"
    },
    {
      "constant": false,
      "inputs": [],
      "name": "contribute",
      "outputs": [],
      "payable": true,
      "stateMutability": "payable",
      "type": "function"
    },
    {
      "constant": false,
      "inputs": [
        {
          "name": "description",
          "type": "string"
        },
        {
          "name": "value",
          "type": "uint256"
        },
        {
          "name": "recipient",
          "type": "address"
        }
      ],
      "name": "createRequest",
      "outputs": [],
      "payable": false,
      "stateMutability": "nonpayable",
      "type": "function"
    },
    {
      "constant": false,
      "inputs": [
        {
          "name": "index",
          "type": "uint256"
        }
      ],
      "name": "approveRequest",
      "outputs": [],
      "payable": false,
      "stateMutability": "nonpayable",
      "type": "function"
    },
    {
      "constant": false,
      "inputs": [
        {
          "name": "index",
          "type": "uint256"
        }
      ],
      "name": "finalizeRequest",
      "outputs": [],
      "payable": false,
      "stateMutability": "nonpayable",
      "type": "function"
    },
    {
      "constant": true,
      "inputs": [],
      "name": "getSummary",
      "outputs": [
        {
          "name": "",
          "type": "uint256"
        },
        {
          "name": "",
          "type": "uint256"
        },
        {
          "name": "",
          "type": "uint256"
        },
        {
          "name": "",
          "type": "uint256"
        },
        {
          "name": "",
          "type": "address"
        },
        {
          "name": "",
          "type": "string"
        }
      ],
      "payable": false,
      "stateMutability": "view",
      "type": "function"
    },
    {
      "constant": true,
      "inputs": [],
      "name": "getRequestCount",
      "outputs": [
        {
          "name": "",
          "type": "uint256"
        }
      ],
      "payable": false,
      "stateMutability": "view",
      "type": "function"
    },
    {
      "constant": false,
      "inputs": [],
      "name": "kill",
      "outputs": [],
      "payable": false,
      "stateMutability": "nonpayable",
      "type": "function"
    }
  ],
  "bytecode": "0x60806040523480156200001157600080fd5b5060405162001850380380620018508339810180604052810190808051906020019092919080519060200190929190805182019291905050506200006433620000e8640100000000026401000000009004565b6000600160006101000a81548160ff021916908315150217905550816001806101000a81548173ffffffffffffffffffffffffffffffffffffffff021916908373ffffffffffffffffffffffffffffffffffffffff160217905550826003819055508060029080519060200190620000de929190620002aa565b5050505062000359565b6200010c81600062000152640100000000026200131e179091906401000000009004565b8073ffffffffffffffffffffffffffffffffffffffff167f6719d08c1888103bea251a4ed56406bd0c3e69723c8a1686e017e7bbe159b6f860405160405180910390a250565b600073ffffffffffffffffffffffffffffffffffffffff168173ffffffffffffffffffffffffffffffffffffffff16141515156200018f57600080fd5b620001aa828262000215640100000000026401000000009004565b151515620001b757600080fd5b60018260000160008373ffffffffffffffffffffffffffffffffffffffff1673ffffffffffffffffffffffffffffffffffffffff16815260200190815260200160002060006101000a81548160ff0219169083151502179055505050565b60008073ffffffffffffffffffffffffffffffffffffffff168273ffffffffffffffffffffffffffffffffffffffff16141515156200025357600080fd5b8260000160008373ffffffffffffffffffffffffffffffffffffffff1673ffffffffffffffffffffffffffffffffffffffff16815260200190815260200160002060009054906101000a900460ff16905092915050565b828054600181600116156101000203166002900490600052602060002090601f016020900481019282601f10620002ed57805160ff19168380011785556200031e565b828001600101855582156200031e579182015b828111156200031d57825182559160200191906001019062000300565b5b5090506200032d919062000331565b5090565b6200035691905b808211156200035257600081600090555060010162000338565b5090565b90565b6114e780620003696000396000f3006080604052600436106100f1576000357c0100000000000000000000000000000000000000000000000000000000900463ffffffff16806303441006146100f65780630a144391146101235780633f4ba83a1461017e5780633fad1834146101955780634051ddac146101c057806341c0e1b51461029f57806346fbf68e146102b65780635c975abb146103115780636ef8d66d1461034057806381d12c581461035757806382dc1ec41461044957806382fde0931461048c5780638456cb59146104b75780638a9cfd55146104ce5780638da5cb5b14610561578063d7bb99ba146105b8578063d7d1bbdb146105c2575b600080fd5b34801561010257600080fd5b50610121600480360381019080803590602001909291905050506105ef565b005b34801561012f57600080fd5b50610164600480360381019080803573ffffffffffffffffffffffffffffffffffffffff1690602001909291905050506107f4565b604051808215151515815260200191505060405180910390f35b34801561018a57600080fd5b50610193610814565b005b3480156101a157600080fd5b506101aa6108c3565b6040518082815260200191505060405180910390f35b3480156101cc57600080fd5b506101d56108d0565b604051808781526020018681526020018581526020018481526020018373ffffffffffffffffffffffffffffffffffffffff1673ffffffffffffffffffffffffffffffffffffffff16815260200180602001828103825283818151815260200191508051906020019080838360005b8381101561025f578082015181840152602081019050610244565b50505050905090810190601f16801561028c5780820380516001836020036101000a031916815260200191505b5097505050505050505060405180910390f35b3480156102ab57600080fd5b506102b46109d2565b005b3480156102c257600080fd5b506102f7600480360381019080803573ffffffffffffffffffffffffffffffffffffffff169060200190929190505050610a67565b604051808215151515815260200191505060405180910390f35b34801561031d57600080fd5b50610326610a84565b604051808215151515815260200191505060405180910390f35b34801561034c57600080fd5b50610355610a9b565b005b34801561036357600080fd5b5061038260048036038101908080359060200190929190505050610aa6565b60405180806020018681526020018573ffffffffffffffffffffffffffffffffffffffff1673ffffffffffffffffffffffffffffffffffffffff16815260200184151515158152602001838152602001828103825287818151815260200191508051906020019080838360005b8381101561040a5780820151818401526020810190506103ef565b50505050905090810190601f1680156104375780820380516001836020036101000a031916815260200191505b50965050505050505060405180910390f35b34801561045557600080fd5b5061048a600480360381019080803573ffffffffffffffffffffffffffffffffffffffff169060200190929190505050610bb0565b005b34801561049857600080fd5b506104a1610bd0565b6040518082815260200191505060405180910390f35b3480156104c357600080fd5b506104cc610bd6565b005b3480156104da57600080fd5b5061055f600480360381019080803590602001908201803590602001908080601f016020809104026020016040519081016040528093929190818152602001838380828437820191505050505050919291929080359060200190929190803573ffffffffffffffffffffffffffffffffffffffff169060200190929190505050610c85565b005b34801561056d57600080fd5b50610576610edf565b604051808273ffffffffffffffffffffffffffffffffffffffff1673ffffffffffffffffffffffffffffffffffffffff16815260200191505060405180910390f35b6105c0610f04565b005b3480156105ce57600080fd5b506105ed60048036038101908080359060200190929190505050610f8a565b005b6000803373ffffffffffffffffffffffffffffffffffffffff166001809054906101000a900473ffffffffffffffffffffffffffffffffffffffff1673ffffffffffffffffffffffffffffffffffffffff1614151561064d57600080fd5b600160009054906101000a900460ff1615151561066957600080fd5b60068381548110151561067857fe5b9060005260206000209060050201915061069e60026004546110dc90919063ffffffff16565b82600401541115156106af57600080fd5b8160020160149054906101000a900460ff161515156106cd57600080fd5b60018260020160146101000a81548160ff0219169083151502179055508160020160009054906101000a900473ffffffffffffffffffffffffffffffffffffffff1690508073ffffffffffffffffffffffffffffffffffffffff166108fc83600101549081150290604051600060405180830381858888f1935050505015801561075b573d6000803e3d6000fd5b507f15cf4d7980b6be9411b518575337aca2b746a23acbd3978bec4a1eb23af1415c8260020160009054906101000a900473ffffffffffffffffffffffffffffffffffffffff168360010154604051808373ffffffffffffffffffffffffffffffffffffffff1673ffffffffffffffffffffffffffffffffffffffff1681526020018281526020019250505060405180910390a1505050565b60056020528060005260406000206000915054906101000a900460ff1681565b61081d33610a67565b151561082857600080fd5b600160009054906101000a900460ff16151561084357600080fd5b6000600160006101000a81548160ff0219169083151502179055507f5db9ee0a495bf2e6ff9c91a7834c1ba4fdd244a5e8aa4e537bd38aeae4b073aa33604051808273ffffffffffffffffffffffffffffffffffffffff1673ffffffffffffffffffffffffffffffffffffffff16815260200191505060405180910390a1565b6000600680549050905090565b600080600080600060606003543073ffffffffffffffffffffffffffffffffffffffff16316006805490506004546001809054906101000a900473ffffffffffffffffffffffffffffffffffffffff166002808054600181600116156101000203166002900480601f0160208091040260200160405190810160405280929190818152602001828054600181600116156101000203166002900480156109b75780601f1061098c576101008083540402835291602001916109b7565b820191906000526020600020905b81548152906001019060200180831161099a57829003601f168201915b50505050509050955095509550955095509550909192939495565b3373ffffffffffffffffffffffffffffffffffffffff166001809054906101000a900473ffffffffffffffffffffffffffffffffffffffff1673ffffffffffffffffffffffffffffffffffffffff16141515610a2d57600080fd5b6001809054906101000a900473ffffffffffffffffffffffffffffffffffffffff1673ffffffffffffffffffffffffffffffffffffffff16ff5b6000610a7d82600061110690919063ffffffff16565b9050919050565b6000600160009054906101000a900460ff16905090565b610aa43361119a565b565b600681815481101515610ab557fe5b9060005260206000209060050201600091509050806000018054600181600116156101000203166002900480601f016020809104026020016040519081016040528092919081815260200182805460018160011615610100020316600290048015610b615780601f10610b3657610100808354040283529160200191610b61565b820191906000526020600020905b815481529060010190602001808311610b4457829003601f168201915b5050505050908060010154908060020160009054906101000a900473ffffffffffffffffffffffffffffffffffffffff16908060020160149054906101000a900460ff16908060040154905085565b610bb933610a67565b1515610bc457600080fd5b610bcd816111f4565b50565b60045481565b610bdf33610a67565b1515610bea57600080fd5b600160009054906101000a900460ff16151515610c0657600080fd5b60018060006101000a81548160ff0219169083151502179055507f62e78cea01bee320cd4e420270b5ea74000d11b0c9f74754ebdbfc544b05a25833604051808273ffffffffffffffffffffffffffffffffffffffff1673ffffffffffffffffffffffffffffffffffffffff16815260200191505060405180910390a1565b610c8d6113ce565b3373ffffffffffffffffffffffffffffffffffffffff166001809054906101000a900473ffffffffffffffffffffffffffffffffffffffff1673ffffffffffffffffffffffffffffffffffffffff16141515610ce857600080fd5b60a0604051908101604052808581526020018481526020018373ffffffffffffffffffffffffffffffffffffffff16815260200160001515815260200160008152509050600681908060018154018082558091505090600182039060005260206000209060050201600090919290919091506000820151816000019080519060200190610d76929190611416565b506020820151816001015560408201518160020160006101000a81548173ffffffffffffffffffffffffffffffffffffffff021916908373ffffffffffffffffffffffffffffffffffffffff16021790555060608201518160020160146101000a81548160ff021916908315150217905550608082015181600401555050507f7c8193f35c0be0f0de85a76806a85eb113857a95308e004a23313fa4dda3293e81600001518260200151836040015160405180806020018481526020018373ffffffffffffffffffffffffffffffffffffffff1673ffffffffffffffffffffffffffffffffffffffff168152602001828103825285818151815260200191508051906020019080838360005b83811015610e9d578082015181840152602081019050610e82565b50505050905090810190601f168015610eca5780820380516001836020036101000a031916815260200191505b5094505050505060405180910390a150505050565b6001809054906101000a900473ffffffffffffffffffffffffffffffffffffffff1681565b60035434111515610f1457600080fd5b6001600560003373ffffffffffffffffffffffffffffffffffffffff1673ffffffffffffffffffffffffffffffffffffffff16815260200190815260200160002060006101000a81548160ff021916908315150217905550610f82600160045461124e90919063ffffffff16565b600481905550565b6000600682815481101515610f9b57fe5b90600052602060002090600502019050600560003373ffffffffffffffffffffffffffffffffffffffff1673ffffffffffffffffffffffffffffffffffffffff16815260200190815260200160002060009054906101000a900460ff16151561100357600080fd5b8060030160003373ffffffffffffffffffffffffffffffffffffffff1673ffffffffffffffffffffffffffffffffffffffff16815260200190815260200160002060009054906101000a900460ff1615151561105e57600080fd5b60018160030160003373ffffffffffffffffffffffffffffffffffffffff1673ffffffffffffffffffffffffffffffffffffffff16815260200190815260200160002060006101000a81548160ff0219169083151502179055506110d06001826004015461124e90919063ffffffff16565b81600401819055505050565b6000806000831115156110ee57600080fd5b82848115156110f957fe5b0490508091505092915050565b60008073ffffffffffffffffffffffffffffffffffffffff168273ffffffffffffffffffffffffffffffffffffffff161415151561114357600080fd5b8260000160008373ffffffffffffffffffffffffffffffffffffffff1673ffffffffffffffffffffffffffffffffffffffff16815260200190815260200160002060009054906101000a900460ff16905092915050565b6111ae81600061126f90919063ffffffff16565b8073ffffffffffffffffffffffffffffffffffffffff167fcd265ebaf09df2871cc7bd4133404a235ba12eff2041bb89d9c714a2621c7c7e60405160405180910390a250565b61120881600061131e90919063ffffffff16565b8073ffffffffffffffffffffffffffffffffffffffff167f6719d08c1888103bea251a4ed56406bd0c3e69723c8a1686e017e7bbe159b6f860405160405180910390a250565b600080828401905083811015151561126557600080fd5b8091505092915050565b600073ffffffffffffffffffffffffffffffffffffffff168173ffffffffffffffffffffffffffffffffffffffff16141515156112ab57600080fd5b6112b58282611106565b15156112c057600080fd5b60008260000160008373ffffffffffffffffffffffffffffffffffffffff1673ffffffffffffffffffffffffffffffffffffffff16815260200190815260200160002060006101000a81548160ff0219169083151502179055505050565b600073ffffffffffffffffffffffffffffffffffffffff168173ffffffffffffffffffffffffffffffffffffffff161415151561135a57600080fd5b6113648282611106565b15151561137057600080fd5b60018260000160008373ffffffffffffffffffffffffffffffffffffffff1673ffffffffffffffffffffffffffffffffffffffff16815260200190815260200160002060006101000a81548160ff0219169083151502179055505050565b60a0604051908101604052806060815260200160008152602001600073ffffffffffffffffffffffffffffffffffffffff168152602001600015158152602001600081525090565b828054600181600116156101000203166002900490600052602060002090601f016020900481019282601f1061145757805160ff1916838001178555611485565b82800160010185558215611485579182015b82811115611484578251825591602001919060010190611469565b5b5090506114929190611496565b5090565b6114b891905b808211156114b457600081600090555060010161149c565b5090565b905600a165627a7a723058209c3e6871576c46346cafaa2b728661931f2b8c233ab98698a649f174481d39360029",
  "source": "pragma solidity 0.4.24;\n\nimport \"openzeppelin-solidity/contracts/lifecycle/Pausable.sol\";\nimport \"openzeppelin-solidity/contracts/math/SafeMath.sol\";\n\n/**\n@title Contract to implement functionality related to management of a campaign. \n@dev   Extends Pausable contract to implement Emergency Stop Pattern\n@author Siva Puvvada\n */\ncontract Campaign is Pausable{\n\n    using SafeMath for uint;\n    \n    struct Request{\n        string description;\n        uint value;\n        address recipient;\n        bool isComplete;\n        mapping(address=>bool) approvals;\n        uint approvalCount;\n    }\n    \n    address public owner;\n    string private imageHash;\n    uint private minimumContribution;\n    uint public approversCount;\n    mapping(address=>bool) public approvers;\n    Request[] public requests;\n    \n    event RequestCreated(string description,uint value, address recipient);\n    event RequestFinalized(address recipient,uint value);\n\n    /**\n    @dev Modifier to check if the sender is the owner of the contract\n     */\n    modifier onlyOwner{\n        require(owner == msg.sender);\n        _;\n    }\n    \n    /**\n    @notice Contructor to create a new Campaign\n    @param minimumAmount Minimim Contribution required for this campaign\n    @param creator Owner of the Campaign\n    @param imgHash IPFS hash of the banner image\n     */\n    constructor(uint minimumAmount, address creator, string imgHash) public {\n        owner = creator;\n        minimumContribution = minimumAmount;\n        imageHash = imgHash;\n    }\n    \n    /**\n    @notice This function allows a user to contribute to a campaign if he is contributing a minimum amount\n           as defined by the owner of the campaign\n    @author Siva Puvvada\n     */\n    function contribute() payable public {\n        require(msg.value > minimumContribution);\n        approvers[msg.sender] = true;\n        approversCount = approversCount.add(1);\n    }\n    \n    /**\n    @notice Allows contract's owner to create a request for release of funds to a recipient\n    @param description Description of the request\n    @param value Amount required for this request\n    @param recipient Vendor who provides goods/services in return of funds\n     */\n    function createRequest(string memory description, uint value, address recipient) \n        public onlyOwner \n    {\n        Request memory request = Request({\n            description:description,\n            value:value,\n            recipient:recipient,\n            isComplete:false,\n            approvalCount:0\n        });\n        \n        requests.push(request);\n        emit RequestCreated(request.description,request.value,request.recipient);\n    }\n    \n    /**\n    @notice Allows a contributor to the campaign approve a request created by the owner if not already approved\n            by the contributor\n    @param index Index of the request in the request array that contributor wants to approve\n     */\n    function approveRequest(uint index) public {\n\n        Request storage request = requests[index];\n        require(approvers[msg.sender]);\n        require(!request.approvals[msg.sender]);\n        request.approvals[msg.sender]=true;\n        request.approvalCount = (request.approvalCount).add(1);\n    }\n    \n    /**\n    @notice Allows the owner to finalize the request if the more than 50% contributors approve the \n            request and release the funds to the recipient defined in the request\n    @dev    using whenNotPaused modifier from Pausable contract for implementing emergency stop pattern\n            performing contract related work before calling transfer to prevent reentrancy attacks\n    @param index Index of the request in the request array that needs to be finalized\n     */\n    function finalizeRequest(uint index) \n        public onlyOwner whenNotPaused{\n        Request storage request = requests[index];\n        require(request.approvalCount>(approversCount.div(2)));\n        require(!request.isComplete);\n        request.isComplete = true;\n        address receiver = request.recipient;\n        receiver.transfer(request.value);\n        emit RequestFinalized(request.recipient,request.value);\n    }\n\n    /**\n    @notice Publishes the summary of the campaign\n    @return Minimum Contribution, Balance, Number of requests, Number of approvers and Owner's address\n     */\n    function getSummary() public view returns(uint,uint,uint,uint,address,string) {\n        return(\n            minimumContribution,\n            address(this).balance,\n            requests.length,\n            approversCount,\n            owner,\n            imageHash\n        );\n    }\n\n    /**\n    @notice Returns the number of requests\n    @dev As Solidity does not return the entire array, getting the count to make individual calls \n         for retrieving the details of the requests\n    @return Number of requests created for a particular campaign\n     */\n    function getRequestCount() public view returns(uint){\n        return requests.length;\n    }\n\n    /**\n    @dev This method provides an ability to destroy and remove the contract from blockchain\n     */\n    function kill() onlyOwner{\n        selfdestruct(owner);\n    }\n}",
  "sourcePath": "/Users/siva/EtherProjects/Campaign/contracts/Campaign.sol",
  "compiler": {
    "name": "solc",
    "version": "0.4.24+commit.e67f0147.Emscripten.clang"
  },
  "schemaVersion": "2.0.1",
  "updatedAt": "2019-01-21T22:02:51.888Z"
}