{
  "contractName": "Campaign",
  "abi": [
    {
      "constant": true,
      "inputs": [
        {
          "name": "",
          "type": "address"
        }
      ],
      "name": "approvers",
      "outputs": [
        {
          "name": "",
          "type": "bool"
        }
      ],
      "payable": false,
      "stateMutability": "view",
      "type": "function"
    },
    {
      "constant": false,
      "inputs": [],
      "name": "unpause",
      "outputs": [],
      "payable": false,
      "stateMutability": "nonpayable",
      "type": "function"
    },
    {
      "constant": true,
      "inputs": [
        {
          "name": "account",
          "type": "address"
        }
      ],
      "name": "isPauser",
      "outputs": [
        {
          "name": "",
          "type": "bool"
        }
      ],
      "payable": false,
      "stateMutability": "view",
      "type": "function"
    },
    {
      "constant": true,
      "inputs": [],
      "name": "paused",
      "outputs": [
        {
          "name": "",
          "type": "bool"
        }
      ],
      "payable": false,
      "stateMutability": "view",
      "type": "function"
    },
    {
      "constant": false,
      "inputs": [],
      "name": "renouncePauser",
      "outputs": [],
      "payable": false,
      "stateMutability": "nonpayable",
      "type": "function"
    },
    {
      "constant": true,
      "inputs": [
        {
          "name": "",
          "type": "uint256"
        }
      ],
      "name": "requests",
      "outputs": [
        {
          "name": "description",
          "type": "string"
        },
        {
          "name": "value",
          "type": "uint256"
        },
        {
          "name": "recipient",
          "type": "address"
        },
        {
          "name": "isComplete",
          "type": "bool"
        },
        {
          "name": "approvalCount",
          "type": "uint256"
        }
      ],
      "payable": false,
      "stateMutability": "view",
      "type": "function"
    },
    {
      "constant": false,
      "inputs": [
        {
          "name": "account",
          "type": "address"
        }
      ],
      "name": "addPauser",
      "outputs": [],
      "payable": false,
      "stateMutability": "nonpayable",
      "type": "function"
    },
    {
      "constant": true,
      "inputs": [],
      "name": "approversCount",
      "outputs": [
        {
          "name": "",
          "type": "uint256"
        }
      ],
      "payable": false,
      "stateMutability": "view",
      "type": "function"
    },
    {
      "constant": false,
      "inputs": [],
      "name": "pause",
      "outputs": [],
      "payable": false,
      "stateMutability": "nonpayable",
      "type": "function"
    },
    {
      "constant": true,
      "inputs": [],
      "name": "owner",
      "outputs": [
        {
          "name": "",
          "type": "address"
        }
      ],
      "payable": false,
      "stateMutability": "view",
      "type": "function"
    },
    {
      "constant": true,
      "inputs": [],
      "name": "minimumContribution",
      "outputs": [
        {
          "name": "",
          "type": "uint256"
        }
      ],
      "payable": false,
      "stateMutability": "view",
      "type": "function"
    },
    {
      "inputs": [
        {
          "name": "minimumAmount",
          "type": "uint256"
        },
        {
          "name": "creator",
          "type": "address"
        }
      ],
      "payable": false,
      "stateMutability": "nonpayable",
      "type": "constructor"
    },
    {
      "anonymous": false,
      "inputs": [
        {
          "indexed": false,
          "name": "description",
          "type": "string"
        },
        {
          "indexed": false,
          "name": "value",
          "type": "uint256"
        },
        {
          "indexed": false,
          "name": "recipient",
          "type": "address"
        }
      ],
      "name": "RequestCreated",
      "type": "event"
    },
    {
      "anonymous": false,
      "inputs": [
        {
          "indexed": false,
          "name": "recipient",
          "type": "address"
        },
        {
          "indexed": false,
          "name": "value",
          "type": "uint256"
        }
      ],
      "name": "RequestFinalized",
      "type": "event"
    },
    {
      "anonymous": false,
      "inputs": [
        {
          "indexed": false,
          "name": "account",
          "type": "address"
        }
      ],
      "name": "Paused",
      "type": "event"
    },
    {
      "anonymous": false,
      "inputs": [
        {
          "indexed": false,
          "name": "account",
          "type": "address"
        }
      ],
      "name": "Unpaused",
      "type": "event"
    },
    {
      "anonymous": false,
      "inputs": [
        {
          "indexed": true,
          "name": "account",
          "type": "address"
        }
      ],
      "name": "PauserAdded",
      "type": "event"
    },
    {
      "anonymous": false,
      "inputs": [
        {
          "indexed": true,
          "name": "account",
          "type": "address"
        }
      ],
      "name": "PauserRemoved",
      "type": "event"
    },
    {
      "constant": false,
      "inputs": [],
      "name": "contribute",
      "outputs": [],
      "payable": true,
      "stateMutability": "payable",
      "type": "function"
    },
    {
      "constant": false,
      "inputs": [
        {
          "name": "description",
          "type": "string"
        },
        {
          "name": "value",
          "type": "uint256"
        },
        {
          "name": "recipient",
          "type": "address"
        }
      ],
      "name": "createRequest",
      "outputs": [],
      "payable": false,
      "stateMutability": "nonpayable",
      "type": "function"
    },
    {
      "constant": false,
      "inputs": [
        {
          "name": "index",
          "type": "uint256"
        }
      ],
      "name": "approveRequest",
      "outputs": [],
      "payable": false,
      "stateMutability": "nonpayable",
      "type": "function"
    },
    {
      "constant": false,
      "inputs": [
        {
          "name": "index",
          "type": "uint256"
        }
      ],
      "name": "finalizeRequest",
      "outputs": [],
      "payable": false,
      "stateMutability": "nonpayable",
      "type": "function"
    },
    {
      "constant": true,
      "inputs": [],
      "name": "getSummary",
      "outputs": [
        {
          "name": "",
          "type": "uint256"
        },
        {
          "name": "",
          "type": "uint256"
        },
        {
          "name": "",
          "type": "uint256"
        },
        {
          "name": "",
          "type": "uint256"
        },
        {
          "name": "",
          "type": "address"
        }
      ],
      "payable": false,
      "stateMutability": "view",
      "type": "function"
    },
    {
      "constant": true,
      "inputs": [],
      "name": "getRequestCount",
      "outputs": [
        {
          "name": "",
          "type": "uint256"
        }
      ],
      "payable": false,
      "stateMutability": "view",
      "type": "function"
    }
  ],
  "bytecode": "0x608060405234801561001057600080fd5b50604051604080620015a98339810180604052810190808051906020019092919080519060200190929190505050610056336100bf640100000000026401000000009004565b6000600160006101000a81548160ff021916908315150217905550806001806101000a81548173ffffffffffffffffffffffffffffffffffffffff021916908373ffffffffffffffffffffffffffffffffffffffff160217905550816002819055505050610279565b6100e081600061012664010000000002611157179091906401000000009004565b8073ffffffffffffffffffffffffffffffffffffffff167f6719d08c1888103bea251a4ed56406bd0c3e69723c8a1686e017e7bbe159b6f860405160405180910390a250565b600073ffffffffffffffffffffffffffffffffffffffff168173ffffffffffffffffffffffffffffffffffffffff161415151561016257600080fd5b61017b82826101e5640100000000026401000000009004565b15151561018757600080fd5b60018260000160008373ffffffffffffffffffffffffffffffffffffffff1673ffffffffffffffffffffffffffffffffffffffff16815260200190815260200160002060006101000a81548160ff0219169083151502179055505050565b60008073ffffffffffffffffffffffffffffffffffffffff168273ffffffffffffffffffffffffffffffffffffffff161415151561022257600080fd5b8260000160008373ffffffffffffffffffffffffffffffffffffffff1673ffffffffffffffffffffffffffffffffffffffff16815260200190815260200160002060009054906101000a900460ff16905092915050565b61132080620002896000396000f3006080604052600436106100f1576000357c0100000000000000000000000000000000000000000000000000000000900463ffffffff16806303441006146100f65780630a144391146101235780633f4ba83a1461017e5780633fad1834146101955780634051ddac146101c057806346fbf68e146102335780635c975abb1461028e5780636ef8d66d146102bd57806381d12c58146102d457806382dc1ec4146103c657806382fde093146104095780638456cb59146104345780638a9cfd551461044b5780638da5cb5b146104de578063937e09b114610535578063d7bb99ba14610560578063d7d1bbdb1461056a575b600080fd5b34801561010257600080fd5b5061012160048036038101908080359060200190929190505050610597565b005b34801561012f57600080fd5b50610164600480360381019080803573ffffffffffffffffffffffffffffffffffffffff169060200190929190505050610795565b604051808215151515815260200191505060405180910390f35b34801561018a57600080fd5b506101936107b5565b005b3480156101a157600080fd5b506101aa610864565b6040518082815260200191505060405180910390f35b3480156101cc57600080fd5b506101d5610871565b604051808681526020018581526020018481526020018381526020018273ffffffffffffffffffffffffffffffffffffffff1673ffffffffffffffffffffffffffffffffffffffff1681526020019550505050505060405180910390f35b34801561023f57600080fd5b50610274600480360381019080803573ffffffffffffffffffffffffffffffffffffffff1690602001909291905050506108d0565b604051808215151515815260200191505060405180910390f35b34801561029a57600080fd5b506102a36108ed565b604051808215151515815260200191505060405180910390f35b3480156102c957600080fd5b506102d2610904565b005b3480156102e057600080fd5b506102ff6004803603810190808035906020019092919050505061090f565b60405180806020018681526020018573ffffffffffffffffffffffffffffffffffffffff1673ffffffffffffffffffffffffffffffffffffffff16815260200184151515158152602001838152602001828103825287818151815260200191508051906020019080838360005b8381101561038757808201518184015260208101905061036c565b50505050905090810190601f1680156103b45780820380516001836020036101000a031916815260200191505b50965050505050505060405180910390f35b3480156103d257600080fd5b50610407600480360381019080803573ffffffffffffffffffffffffffffffffffffffff169060200190929190505050610a19565b005b34801561041557600080fd5b5061041e610a39565b6040518082815260200191505060405180910390f35b34801561044057600080fd5b50610449610a3f565b005b34801561045757600080fd5b506104dc600480360381019080803590602001908201803590602001908080601f016020809104026020016040519081016040528093929190818152602001838380828437820191505050505050919291929080359060200190929190803573ffffffffffffffffffffffffffffffffffffffff169060200190929190505050610aee565b005b3480156104ea57600080fd5b506104f3610d48565b604051808273ffffffffffffffffffffffffffffffffffffffff1673ffffffffffffffffffffffffffffffffffffffff16815260200191505060405180910390f35b34801561054157600080fd5b5061054a610d6d565b6040518082815260200191505060405180910390f35b610568610d73565b005b34801561057657600080fd5b5061059560048036038101908080359060200190929190505050610df4565b005b6000803373ffffffffffffffffffffffffffffffffffffffff166001809054906101000a900473ffffffffffffffffffffffffffffffffffffffff1673ffffffffffffffffffffffffffffffffffffffff161415156105f557600080fd5b600160009054906101000a900460ff1615151561061157600080fd5b60058381548110151561062057fe5b90600052602060002090600502019150600260035481151561063e57fe5b04826004015411151561065057600080fd5b8160020160149054906101000a900460ff1615151561066e57600080fd5b60018260020160146101000a81548160ff0219169083151502179055508160020160009054906101000a900473ffffffffffffffffffffffffffffffffffffffff1690508073ffffffffffffffffffffffffffffffffffffffff166108fc83600101549081150290604051600060405180830381858888f193505050501580156106fc573d6000803e3d6000fd5b507f15cf4d7980b6be9411b518575337aca2b746a23acbd3978bec4a1eb23af1415c8260020160009054906101000a900473ffffffffffffffffffffffffffffffffffffffff168360010154604051808373ffffffffffffffffffffffffffffffffffffffff1673ffffffffffffffffffffffffffffffffffffffff1681526020018281526020019250505060405180910390a1505050565b60046020528060005260406000206000915054906101000a900460ff1681565b6107be336108d0565b15156107c957600080fd5b600160009054906101000a900460ff1615156107e457600080fd5b6000600160006101000a81548160ff0219169083151502179055507f5db9ee0a495bf2e6ff9c91a7834c1ba4fdd244a5e8aa4e537bd38aeae4b073aa33604051808273ffffffffffffffffffffffffffffffffffffffff1673ffffffffffffffffffffffffffffffffffffffff16815260200191505060405180910390a1565b6000600580549050905090565b60008060008060006002543073ffffffffffffffffffffffffffffffffffffffff16316005805490506003546001809054906101000a900473ffffffffffffffffffffffffffffffffffffffff16945094509450945094509091929394565b60006108e6826000610f3f90919063ffffffff16565b9050919050565b6000600160009054906101000a900460ff16905090565b61090d33610fd3565b565b60058181548110151561091e57fe5b9060005260206000209060050201600091509050806000018054600181600116156101000203166002900480601f0160208091040260200160405190810160405280929190818152602001828054600181600116156101000203166002900480156109ca5780601f1061099f576101008083540402835291602001916109ca565b820191906000526020600020905b8154815290600101906020018083116109ad57829003601f168201915b5050505050908060010154908060020160009054906101000a900473ffffffffffffffffffffffffffffffffffffffff16908060020160149054906101000a900460ff16908060040154905085565b610a22336108d0565b1515610a2d57600080fd5b610a368161102d565b50565b60035481565b610a48336108d0565b1515610a5357600080fd5b600160009054906101000a900460ff16151515610a6f57600080fd5b60018060006101000a81548160ff0219169083151502179055507f62e78cea01bee320cd4e420270b5ea74000d11b0c9f74754ebdbfc544b05a25833604051808273ffffffffffffffffffffffffffffffffffffffff1673ffffffffffffffffffffffffffffffffffffffff16815260200191505060405180910390a1565b610af6611207565b3373ffffffffffffffffffffffffffffffffffffffff166001809054906101000a900473ffffffffffffffffffffffffffffffffffffffff1673ffffffffffffffffffffffffffffffffffffffff16141515610b5157600080fd5b60a0604051908101604052808581526020018481526020018373ffffffffffffffffffffffffffffffffffffffff16815260200160001515815260200160008152509050600581908060018154018082558091505090600182039060005260206000209060050201600090919290919091506000820151816000019080519060200190610bdf92919061124f565b506020820151816001015560408201518160020160006101000a81548173ffffffffffffffffffffffffffffffffffffffff021916908373ffffffffffffffffffffffffffffffffffffffff16021790555060608201518160020160146101000a81548160ff021916908315150217905550608082015181600401555050507f7c8193f35c0be0f0de85a76806a85eb113857a95308e004a23313fa4dda3293e81600001518260200151836040015160405180806020018481526020018373ffffffffffffffffffffffffffffffffffffffff1673ffffffffffffffffffffffffffffffffffffffff168152602001828103825285818151815260200191508051906020019080838360005b83811015610d06578082015181840152602081019050610ceb565b50505050905090810190601f168015610d335780820380516001836020036101000a031916815260200191505b5094505050505060405180910390a150505050565b6001809054906101000a900473ffffffffffffffffffffffffffffffffffffffff1681565b60025481565b60025434111515610d8357600080fd5b6001600460003373ffffffffffffffffffffffffffffffffffffffff1673ffffffffffffffffffffffffffffffffffffffff16815260200190815260200160002060006101000a81548160ff021916908315150217905550610df1600160035461108790919063ffffffff16565b50565b6000600582815481101515610e0557fe5b90600052602060002090600502019050600460003373ffffffffffffffffffffffffffffffffffffffff1673ffffffffffffffffffffffffffffffffffffffff16815260200190815260200160002060009054906101000a900460ff161515610e6d57600080fd5b8060030160003373ffffffffffffffffffffffffffffffffffffffff1673ffffffffffffffffffffffffffffffffffffffff16815260200190815260200160002060009054906101000a900460ff16151515610ec857600080fd5b60018160030160003373ffffffffffffffffffffffffffffffffffffffff1673ffffffffffffffffffffffffffffffffffffffff16815260200190815260200160002060006101000a81548160ff021916908315150217905550610f3a6001826004015461108790919063ffffffff16565b505050565b60008073ffffffffffffffffffffffffffffffffffffffff168273ffffffffffffffffffffffffffffffffffffffff1614151515610f7c57600080fd5b8260000160008373ffffffffffffffffffffffffffffffffffffffff1673ffffffffffffffffffffffffffffffffffffffff16815260200190815260200160002060009054906101000a900460ff16905092915050565b610fe78160006110a890919063ffffffff16565b8073ffffffffffffffffffffffffffffffffffffffff167fcd265ebaf09df2871cc7bd4133404a235ba12eff2041bb89d9c714a2621c7c7e60405160405180910390a250565b61104181600061115790919063ffffffff16565b8073ffffffffffffffffffffffffffffffffffffffff167f6719d08c1888103bea251a4ed56406bd0c3e69723c8a1686e017e7bbe159b6f860405160405180910390a250565b600080828401905083811015151561109e57600080fd5b8091505092915050565b600073ffffffffffffffffffffffffffffffffffffffff168173ffffffffffffffffffffffffffffffffffffffff16141515156110e457600080fd5b6110ee8282610f3f565b15156110f957600080fd5b60008260000160008373ffffffffffffffffffffffffffffffffffffffff1673ffffffffffffffffffffffffffffffffffffffff16815260200190815260200160002060006101000a81548160ff0219169083151502179055505050565b600073ffffffffffffffffffffffffffffffffffffffff168173ffffffffffffffffffffffffffffffffffffffff161415151561119357600080fd5b61119d8282610f3f565b1515156111a957600080fd5b60018260000160008373ffffffffffffffffffffffffffffffffffffffff1673ffffffffffffffffffffffffffffffffffffffff16815260200190815260200160002060006101000a81548160ff0219169083151502179055505050565b60a0604051908101604052806060815260200160008152602001600073ffffffffffffffffffffffffffffffffffffffff168152602001600015158152602001600081525090565b828054600181600116156101000203166002900490600052602060002090601f016020900481019282601f1061129057805160ff19168380011785556112be565b828001600101855582156112be579182015b828111156112bd5782518255916020019190600101906112a2565b5b5090506112cb91906112cf565b5090565b6112f191905b808211156112ed5760008160009055506001016112d5565b5090565b905600a165627a7a72305820f3d23ff73c3311eee50b7749f38e71911672ebe5576ca78b29f75139d00e98b90029",
  "source": "pragma solidity ^0.4.3;\n\nimport \"openzeppelin-solidity/contracts/lifecycle/Pausable.sol\";\nimport \"openzeppelin-solidity/contracts/math/SafeMath.sol\";\n\n/**\n@title Contract to implement functionality related to management of a campaign. \n@dev   Extends Pausable contract to implement Emergency Stop Pattern\n@author Siva Puvvada\n */\ncontract Campaign is Pausable{\n\n    using SafeMath for uint;\n    \n    struct Request{\n        string description;\n        uint value;\n        address recipient;\n        bool isComplete;\n        mapping(address=>bool) approvals;\n        uint approvalCount;\n    }\n    \n    address public owner;\n    uint public minimumContribution;\n    uint public approversCount;\n    mapping(address=>bool) public approvers;\n    Request[] public requests;\n    \n    event RequestCreated(string description,uint value, address recipient);\n    event RequestFinalized(address recipient,uint value);\n\n    modifier onlyOwner{\n        require(owner == msg.sender);\n        _;\n    }\n    \n    constructor(uint minimumAmount, address creator) public {\n        owner = creator;\n        minimumContribution = minimumAmount;\n    }\n    \n    /**\n    @notice This function allows a user to contribute to a campaign if he is contributing a minimum amount\n           as defined by the owner of the campaign\n    @author Siva Puvvada\n     */\n    function contribute() payable public {\n        require(msg.value > minimumContribution);\n        approvers[msg.sender] = true;\n        approversCount.add(1);\n    }\n    \n    /**\n    @notice Allows contract's owner to create a request for release of funds to a recipient\n    @param description Description of the request\n    @param value Amount required for this request\n    @param recipient Vendor who provides goods/services in return of funds\n     */\n    function createRequest(string memory description, uint value, address recipient) \n        public onlyOwner \n    {\n        Request memory request = Request({\n            description:description,\n            value:value,\n            recipient:recipient,\n            isComplete:false,\n            approvalCount:0\n        });\n        \n        requests.push(request);\n        emit RequestCreated(request.description,request.value,request.recipient);\n    }\n    \n    /**\n    @notice Allows a contributor to the campaign approve a request created by the owner\n    @param index Index of the request in the request array that contributor wants to approve\n     */\n    function approveRequest(uint index) public {\n\n        Request storage request = requests[index];\n        require(approvers[msg.sender]);\n        require(!request.approvals[msg.sender]);\n        request.approvals[msg.sender]=true;\n        request.approvalCount.add(1);\n    }\n    \n    /**\n    @notice Allows the owner to finalize the request if the more than 50% contributors approve the \n            request and release the funds to the recipient defined in the request\n    @dev    using OpenZeppelin's Pausable contract for implementing emergency stop pattern\n    @param index Index of the request in the request array that needs to be finalized\n     */\n    function finalizeRequest(uint index) \n        public onlyOwner whenNotPaused{\n        Request storage request = requests[index];\n        require(request.approvalCount>(approversCount/2));\n        require(!request.isComplete);\n        request.isComplete = true;\n        address receiver = request.recipient;\n        receiver.transfer(request.value);\n        emit RequestFinalized(request.recipient,request.value);\n    }\n\n    /**\n    @notice Publishes the summary of the campaign\n    @return Minimum Contribution, Balance, Number of requests, Number of approvers and Owner's address\n     */\n    function getSummary() public view returns(uint,uint,uint,uint,address) {\n        return(\n            minimumContribution,\n            address(this).balance,\n            requests.length,\n            approversCount,\n            owner\n        );\n    }\n\n    /**\n    @notice Returns the number of requests\n    @dev As Solidity does not return the entire array, getting the count to make individual calls \n         for retrieving the details of the requests\n    @return Number of requests created for a particular campaign\n     */\n    function getRequestCount() public view returns(uint){\n        return requests.length;\n    }\n}",
  "sourcePath": "/Users/siva/EtherProjects/Campaign/contracts/Campaign.sol",
  "compiler": {
    "name": "solc",
    "version": "0.4.24+commit.e67f0147.Emscripten.clang"
  },
  "schemaVersion": "2.0.1",
  "updatedAt": "2018-12-05T23:44:30.804Z"
}