{
  "contractName": "Campaign",
  "abi": [
    {
      "constant": true,
      "inputs": [
        {
          "name": "",
          "type": "address"
        }
      ],
      "name": "approvers",
      "outputs": [
        {
          "name": "",
          "type": "bool"
        }
      ],
      "payable": false,
      "stateMutability": "view",
      "type": "function"
    },
    {
      "constant": false,
      "inputs": [],
      "name": "unpause",
      "outputs": [],
      "payable": false,
      "stateMutability": "nonpayable",
      "type": "function"
    },
    {
      "constant": true,
      "inputs": [
        {
          "name": "account",
          "type": "address"
        }
      ],
      "name": "isPauser",
      "outputs": [
        {
          "name": "",
          "type": "bool"
        }
      ],
      "payable": false,
      "stateMutability": "view",
      "type": "function"
    },
    {
      "constant": true,
      "inputs": [],
      "name": "imageHash",
      "outputs": [
        {
          "name": "",
          "type": "string"
        }
      ],
      "payable": false,
      "stateMutability": "view",
      "type": "function"
    },
    {
      "constant": true,
      "inputs": [],
      "name": "paused",
      "outputs": [
        {
          "name": "",
          "type": "bool"
        }
      ],
      "payable": false,
      "stateMutability": "view",
      "type": "function"
    },
    {
      "constant": false,
      "inputs": [],
      "name": "renouncePauser",
      "outputs": [],
      "payable": false,
      "stateMutability": "nonpayable",
      "type": "function"
    },
    {
      "constant": true,
      "inputs": [
        {
          "name": "",
          "type": "uint256"
        }
      ],
      "name": "requests",
      "outputs": [
        {
          "name": "description",
          "type": "string"
        },
        {
          "name": "value",
          "type": "uint256"
        },
        {
          "name": "recipient",
          "type": "address"
        },
        {
          "name": "isComplete",
          "type": "bool"
        },
        {
          "name": "approvalCount",
          "type": "uint256"
        }
      ],
      "payable": false,
      "stateMutability": "view",
      "type": "function"
    },
    {
      "constant": false,
      "inputs": [
        {
          "name": "account",
          "type": "address"
        }
      ],
      "name": "addPauser",
      "outputs": [],
      "payable": false,
      "stateMutability": "nonpayable",
      "type": "function"
    },
    {
      "constant": true,
      "inputs": [],
      "name": "approversCount",
      "outputs": [
        {
          "name": "",
          "type": "uint256"
        }
      ],
      "payable": false,
      "stateMutability": "view",
      "type": "function"
    },
    {
      "constant": false,
      "inputs": [],
      "name": "pause",
      "outputs": [],
      "payable": false,
      "stateMutability": "nonpayable",
      "type": "function"
    },
    {
      "constant": true,
      "inputs": [],
      "name": "owner",
      "outputs": [
        {
          "name": "",
          "type": "address"
        }
      ],
      "payable": false,
      "stateMutability": "view",
      "type": "function"
    },
    {
      "constant": true,
      "inputs": [],
      "name": "minimumContribution",
      "outputs": [
        {
          "name": "",
          "type": "uint256"
        }
      ],
      "payable": false,
      "stateMutability": "view",
      "type": "function"
    },
    {
      "inputs": [
        {
          "name": "minimumAmount",
          "type": "uint256"
        },
        {
          "name": "creator",
          "type": "address"
        },
        {
          "name": "imgHash",
          "type": "string"
        }
      ],
      "payable": false,
      "stateMutability": "nonpayable",
      "type": "constructor"
    },
    {
      "anonymous": false,
      "inputs": [
        {
          "indexed": false,
          "name": "description",
          "type": "string"
        },
        {
          "indexed": false,
          "name": "value",
          "type": "uint256"
        },
        {
          "indexed": false,
          "name": "recipient",
          "type": "address"
        }
      ],
      "name": "RequestCreated",
      "type": "event"
    },
    {
      "anonymous": false,
      "inputs": [
        {
          "indexed": false,
          "name": "recipient",
          "type": "address"
        },
        {
          "indexed": false,
          "name": "value",
          "type": "uint256"
        }
      ],
      "name": "RequestFinalized",
      "type": "event"
    },
    {
      "anonymous": false,
      "inputs": [
        {
          "indexed": false,
          "name": "account",
          "type": "address"
        }
      ],
      "name": "Paused",
      "type": "event"
    },
    {
      "anonymous": false,
      "inputs": [
        {
          "indexed": false,
          "name": "account",
          "type": "address"
        }
      ],
      "name": "Unpaused",
      "type": "event"
    },
    {
      "anonymous": false,
      "inputs": [
        {
          "indexed": true,
          "name": "account",
          "type": "address"
        }
      ],
      "name": "PauserAdded",
      "type": "event"
    },
    {
      "anonymous": false,
      "inputs": [
        {
          "indexed": true,
          "name": "account",
          "type": "address"
        }
      ],
      "name": "PauserRemoved",
      "type": "event"
    },
    {
      "constant": false,
      "inputs": [],
      "name": "contribute",
      "outputs": [],
      "payable": true,
      "stateMutability": "payable",
      "type": "function"
    },
    {
      "constant": false,
      "inputs": [
        {
          "name": "description",
          "type": "string"
        },
        {
          "name": "value",
          "type": "uint256"
        },
        {
          "name": "recipient",
          "type": "address"
        }
      ],
      "name": "createRequest",
      "outputs": [],
      "payable": false,
      "stateMutability": "nonpayable",
      "type": "function"
    },
    {
      "constant": false,
      "inputs": [
        {
          "name": "index",
          "type": "uint256"
        }
      ],
      "name": "approveRequest",
      "outputs": [],
      "payable": false,
      "stateMutability": "nonpayable",
      "type": "function"
    },
    {
      "constant": false,
      "inputs": [
        {
          "name": "index",
          "type": "uint256"
        }
      ],
      "name": "finalizeRequest",
      "outputs": [],
      "payable": false,
      "stateMutability": "nonpayable",
      "type": "function"
    },
    {
      "constant": true,
      "inputs": [],
      "name": "getSummary",
      "outputs": [
        {
          "name": "",
          "type": "uint256"
        },
        {
          "name": "",
          "type": "uint256"
        },
        {
          "name": "",
          "type": "uint256"
        },
        {
          "name": "",
          "type": "uint256"
        },
        {
          "name": "",
          "type": "address"
        },
        {
          "name": "",
          "type": "string"
        }
      ],
      "payable": false,
      "stateMutability": "view",
      "type": "function"
    },
    {
      "constant": true,
      "inputs": [],
      "name": "getRequestCount",
      "outputs": [
        {
          "name": "",
          "type": "uint256"
        }
      ],
      "payable": false,
      "stateMutability": "view",
      "type": "function"
    }
  ],
  "bytecode": "0x60806040523480156200001157600080fd5b50604051620018dd380380620018dd8339810180604052810190808051906020019092919080519060200190929190805182019291905050506200006433620000e8640100000000026401000000009004565b6000600160006101000a81548160ff021916908315150217905550816001806101000a81548173ffffffffffffffffffffffffffffffffffffffff021916908373ffffffffffffffffffffffffffffffffffffffff160217905550826003819055508060029080519060200190620000de929190620002aa565b5050505062000359565b6200010c8160006200015264010000000002620013ab179091906401000000009004565b8073ffffffffffffffffffffffffffffffffffffffff167f6719d08c1888103bea251a4ed56406bd0c3e69723c8a1686e017e7bbe159b6f860405160405180910390a250565b600073ffffffffffffffffffffffffffffffffffffffff168173ffffffffffffffffffffffffffffffffffffffff16141515156200018f57600080fd5b620001aa828262000215640100000000026401000000009004565b151515620001b757600080fd5b60018260000160008373ffffffffffffffffffffffffffffffffffffffff1673ffffffffffffffffffffffffffffffffffffffff16815260200190815260200160002060006101000a81548160ff0219169083151502179055505050565b60008073ffffffffffffffffffffffffffffffffffffffff168273ffffffffffffffffffffffffffffffffffffffff16141515156200025357600080fd5b8260000160008373ffffffffffffffffffffffffffffffffffffffff1673ffffffffffffffffffffffffffffffffffffffff16815260200190815260200160002060009054906101000a900460ff16905092915050565b828054600181600116156101000203166002900490600052602060002090601f016020900481019282601f10620002ed57805160ff19168380011785556200031e565b828001600101855582156200031e579182015b828111156200031d57825182559160200191906001019062000300565b5b5090506200032d919062000331565b5090565b6200035691905b808211156200035257600081600090555060010162000338565b5090565b90565b61157480620003696000396000f3006080604052600436106100fc576000357c0100000000000000000000000000000000000000000000000000000000900463ffffffff16806303441006146101015780630a1443911461012e5780633f4ba83a146101895780633fad1834146101a05780634051ddac146101cb57806346fbf68e146102aa57806351605d80146103055780635c975abb146103955780636ef8d66d146103c457806381d12c58146103db57806382dc1ec4146104cd57806382fde093146105105780638456cb591461053b5780638a9cfd55146105525780638da5cb5b146105e5578063937e09b11461063c578063d7bb99ba14610667578063d7d1bbdb14610671575b600080fd5b34801561010d57600080fd5b5061012c6004803603810190808035906020019092919050505061069e565b005b34801561013a57600080fd5b5061016f600480360381019080803573ffffffffffffffffffffffffffffffffffffffff16906020019092919050505061089c565b604051808215151515815260200191505060405180910390f35b34801561019557600080fd5b5061019e6108bc565b005b3480156101ac57600080fd5b506101b561096b565b6040518082815260200191505060405180910390f35b3480156101d757600080fd5b506101e0610978565b604051808781526020018681526020018581526020018481526020018373ffffffffffffffffffffffffffffffffffffffff1673ffffffffffffffffffffffffffffffffffffffff16815260200180602001828103825283818151815260200191508051906020019080838360005b8381101561026a57808201518184015260208101905061024f565b50505050905090810190601f1680156102975780820380516001836020036101000a031916815260200191505b5097505050505050505060405180910390f35b3480156102b657600080fd5b506102eb600480360381019080803573ffffffffffffffffffffffffffffffffffffffff169060200190929190505050610a7a565b604051808215151515815260200191505060405180910390f35b34801561031157600080fd5b5061031a610a97565b6040518080602001828103825283818151815260200191508051906020019080838360005b8381101561035a57808201518184015260208101905061033f565b50505050905090810190601f1680156103875780820380516001836020036101000a031916815260200191505b509250505060405180910390f35b3480156103a157600080fd5b506103aa610b35565b604051808215151515815260200191505060405180910390f35b3480156103d057600080fd5b506103d9610b4c565b005b3480156103e757600080fd5b5061040660048036038101908080359060200190929190505050610b57565b60405180806020018681526020018573ffffffffffffffffffffffffffffffffffffffff1673ffffffffffffffffffffffffffffffffffffffff16815260200184151515158152602001838152602001828103825287818151815260200191508051906020019080838360005b8381101561048e578082015181840152602081019050610473565b50505050905090810190601f1680156104bb5780820380516001836020036101000a031916815260200191505b50965050505050505060405180910390f35b3480156104d957600080fd5b5061050e600480360381019080803573ffffffffffffffffffffffffffffffffffffffff169060200190929190505050610c61565b005b34801561051c57600080fd5b50610525610c81565b6040518082815260200191505060405180910390f35b34801561054757600080fd5b50610550610c87565b005b34801561055e57600080fd5b506105e3600480360381019080803590602001908201803590602001908080601f016020809104026020016040519081016040528093929190818152602001838380828437820191505050505050919291929080359060200190929190803573ffffffffffffffffffffffffffffffffffffffff169060200190929190505050610d36565b005b3480156105f157600080fd5b506105fa610f90565b604051808273ffffffffffffffffffffffffffffffffffffffff1673ffffffffffffffffffffffffffffffffffffffff16815260200191505060405180910390f35b34801561064857600080fd5b50610651610fb5565b6040518082815260200191505060405180910390f35b61066f610fbb565b005b34801561067d57600080fd5b5061069c60048036038101908080359060200190929190505050611041565b005b6000803373ffffffffffffffffffffffffffffffffffffffff166001809054906101000a900473ffffffffffffffffffffffffffffffffffffffff1673ffffffffffffffffffffffffffffffffffffffff161415156106fc57600080fd5b600160009054906101000a900460ff1615151561071857600080fd5b60068381548110151561072757fe5b90600052602060002090600502019150600260045481151561074557fe5b04826004015411151561075757600080fd5b8160020160149054906101000a900460ff1615151561077557600080fd5b60018260020160146101000a81548160ff0219169083151502179055508160020160009054906101000a900473ffffffffffffffffffffffffffffffffffffffff1690508073ffffffffffffffffffffffffffffffffffffffff166108fc83600101549081150290604051600060405180830381858888f19350505050158015610803573d6000803e3d6000fd5b507f15cf4d7980b6be9411b518575337aca2b746a23acbd3978bec4a1eb23af1415c8260020160009054906101000a900473ffffffffffffffffffffffffffffffffffffffff168360010154604051808373ffffffffffffffffffffffffffffffffffffffff1673ffffffffffffffffffffffffffffffffffffffff1681526020018281526020019250505060405180910390a1505050565b60056020528060005260406000206000915054906101000a900460ff1681565b6108c533610a7a565b15156108d057600080fd5b600160009054906101000a900460ff1615156108eb57600080fd5b6000600160006101000a81548160ff0219169083151502179055507f5db9ee0a495bf2e6ff9c91a7834c1ba4fdd244a5e8aa4e537bd38aeae4b073aa33604051808273ffffffffffffffffffffffffffffffffffffffff1673ffffffffffffffffffffffffffffffffffffffff16815260200191505060405180910390a1565b6000600680549050905090565b600080600080600060606003543073ffffffffffffffffffffffffffffffffffffffff16316006805490506004546001809054906101000a900473ffffffffffffffffffffffffffffffffffffffff166002808054600181600116156101000203166002900480601f016020809104026020016040519081016040528092919081815260200182805460018160011615610100020316600290048015610a5f5780601f10610a3457610100808354040283529160200191610a5f565b820191906000526020600020905b815481529060010190602001808311610a4257829003601f168201915b50505050509050955095509550955095509550909192939495565b6000610a9082600061119390919063ffffffff16565b9050919050565b60028054600181600116156101000203166002900480601f016020809104026020016040519081016040528092919081815260200182805460018160011615610100020316600290048015610b2d5780601f10610b0257610100808354040283529160200191610b2d565b820191906000526020600020905b815481529060010190602001808311610b1057829003601f168201915b505050505081565b6000600160009054906101000a900460ff16905090565b610b5533611227565b565b600681815481101515610b6657fe5b9060005260206000209060050201600091509050806000018054600181600116156101000203166002900480601f016020809104026020016040519081016040528092919081815260200182805460018160011615610100020316600290048015610c125780601f10610be757610100808354040283529160200191610c12565b820191906000526020600020905b815481529060010190602001808311610bf557829003601f168201915b5050505050908060010154908060020160009054906101000a900473ffffffffffffffffffffffffffffffffffffffff16908060020160149054906101000a900460ff16908060040154905085565b610c6a33610a7a565b1515610c7557600080fd5b610c7e81611281565b50565b60045481565b610c9033610a7a565b1515610c9b57600080fd5b600160009054906101000a900460ff16151515610cb757600080fd5b60018060006101000a81548160ff0219169083151502179055507f62e78cea01bee320cd4e420270b5ea74000d11b0c9f74754ebdbfc544b05a25833604051808273ffffffffffffffffffffffffffffffffffffffff1673ffffffffffffffffffffffffffffffffffffffff16815260200191505060405180910390a1565b610d3e61145b565b3373ffffffffffffffffffffffffffffffffffffffff166001809054906101000a900473ffffffffffffffffffffffffffffffffffffffff1673ffffffffffffffffffffffffffffffffffffffff16141515610d9957600080fd5b60a0604051908101604052808581526020018481526020018373ffffffffffffffffffffffffffffffffffffffff16815260200160001515815260200160008152509050600681908060018154018082558091505090600182039060005260206000209060050201600090919290919091506000820151816000019080519060200190610e279291906114a3565b506020820151816001015560408201518160020160006101000a81548173ffffffffffffffffffffffffffffffffffffffff021916908373ffffffffffffffffffffffffffffffffffffffff16021790555060608201518160020160146101000a81548160ff021916908315150217905550608082015181600401555050507f7c8193f35c0be0f0de85a76806a85eb113857a95308e004a23313fa4dda3293e81600001518260200151836040015160405180806020018481526020018373ffffffffffffffffffffffffffffffffffffffff1673ffffffffffffffffffffffffffffffffffffffff168152602001828103825285818151815260200191508051906020019080838360005b83811015610f4e578082015181840152602081019050610f33565b50505050905090810190601f168015610f7b5780820380516001836020036101000a031916815260200191505b5094505050505060405180910390a150505050565b6001809054906101000a900473ffffffffffffffffffffffffffffffffffffffff1681565b60035481565b60035434111515610fcb57600080fd5b6001600560003373ffffffffffffffffffffffffffffffffffffffff1673ffffffffffffffffffffffffffffffffffffffff16815260200190815260200160002060006101000a81548160ff02191690831515021790555061103960016004546112db90919063ffffffff16565b600481905550565b600060068281548110151561105257fe5b90600052602060002090600502019050600560003373ffffffffffffffffffffffffffffffffffffffff1673ffffffffffffffffffffffffffffffffffffffff16815260200190815260200160002060009054906101000a900460ff1615156110ba57600080fd5b8060030160003373ffffffffffffffffffffffffffffffffffffffff1673ffffffffffffffffffffffffffffffffffffffff16815260200190815260200160002060009054906101000a900460ff1615151561111557600080fd5b60018160030160003373ffffffffffffffffffffffffffffffffffffffff1673ffffffffffffffffffffffffffffffffffffffff16815260200190815260200160002060006101000a81548160ff021916908315150217905550611187600182600401546112db90919063ffffffff16565b81600401819055505050565b60008073ffffffffffffffffffffffffffffffffffffffff168273ffffffffffffffffffffffffffffffffffffffff16141515156111d057600080fd5b8260000160008373ffffffffffffffffffffffffffffffffffffffff1673ffffffffffffffffffffffffffffffffffffffff16815260200190815260200160002060009054906101000a900460ff16905092915050565b61123b8160006112fc90919063ffffffff16565b8073ffffffffffffffffffffffffffffffffffffffff167fcd265ebaf09df2871cc7bd4133404a235ba12eff2041bb89d9c714a2621c7c7e60405160405180910390a250565b6112958160006113ab90919063ffffffff16565b8073ffffffffffffffffffffffffffffffffffffffff167f6719d08c1888103bea251a4ed56406bd0c3e69723c8a1686e017e7bbe159b6f860405160405180910390a250565b60008082840190508381101515156112f257600080fd5b8091505092915050565b600073ffffffffffffffffffffffffffffffffffffffff168173ffffffffffffffffffffffffffffffffffffffff161415151561133857600080fd5b6113428282611193565b151561134d57600080fd5b60008260000160008373ffffffffffffffffffffffffffffffffffffffff1673ffffffffffffffffffffffffffffffffffffffff16815260200190815260200160002060006101000a81548160ff0219169083151502179055505050565b600073ffffffffffffffffffffffffffffffffffffffff168173ffffffffffffffffffffffffffffffffffffffff16141515156113e757600080fd5b6113f18282611193565b1515156113fd57600080fd5b60018260000160008373ffffffffffffffffffffffffffffffffffffffff1673ffffffffffffffffffffffffffffffffffffffff16815260200190815260200160002060006101000a81548160ff0219169083151502179055505050565b60a0604051908101604052806060815260200160008152602001600073ffffffffffffffffffffffffffffffffffffffff168152602001600015158152602001600081525090565b828054600181600116156101000203166002900490600052602060002090601f016020900481019282601f106114e457805160ff1916838001178555611512565b82800160010185558215611512579182015b828111156115115782518255916020019190600101906114f6565b5b50905061151f9190611523565b5090565b61154591905b80821115611541576000816000905550600101611529565b5090565b905600a165627a7a723058206c66e4c704094ffc0a05e371ca2f8aeeac497fe7b906e6010096760722d807cb0029",
  "source": "pragma solidity ^0.4.3;\n\nimport \"openzeppelin-solidity/contracts/lifecycle/Pausable.sol\";\nimport \"openzeppelin-solidity/contracts/math/SafeMath.sol\";\n\n/**\n@title Contract to implement functionality related to management of a campaign. \n@dev   Extends Pausable contract to implement Emergency Stop Pattern\n@author Siva Puvvada\n */\ncontract Campaign is Pausable{\n\n    using SafeMath for uint;\n    \n    struct Request{\n        string description;\n        uint value;\n        address recipient;\n        bool isComplete;\n        mapping(address=>bool) approvals;\n        uint approvalCount;\n    }\n    \n    address public owner;\n    string public imageHash;\n    uint public minimumContribution;\n    uint public approversCount;\n    mapping(address=>bool) public approvers;\n    Request[] public requests;\n    \n    event RequestCreated(string description,uint value, address recipient);\n    event RequestFinalized(address recipient,uint value);\n\n    /**\n    @dev Modifier to check if the sender is the owner of the contract\n     */\n    modifier onlyOwner{\n        require(owner == msg.sender);\n        _;\n    }\n    \n    /**\n    @notice Constructor\n    @param minimumAmount Minimum Contribution required for this campaign\n    @param creator Owner of the campaign\n     */\n    constructor(uint minimumAmount, address creator, string imgHash) public {\n        owner = creator;\n        minimumContribution = minimumAmount;\n        imageHash = imgHash;\n    }\n    \n    /**\n    @notice This function allows a user to contribute to a campaign if he is contributing a minimum amount\n           as defined by the owner of the campaign\n    @author Siva Puvvada\n     */\n    function contribute() payable public {\n        require(msg.value > minimumContribution);\n        approvers[msg.sender] = true;\n        approversCount = approversCount.add(1);\n    }\n    \n    /**\n    @notice Allows contract's owner to create a request for release of funds to a recipient\n    @param description Description of the request\n    @param value Amount required for this request\n    @param recipient Vendor who provides goods/services in return of funds\n     */\n    function createRequest(string memory description, uint value, address recipient) \n        public onlyOwner \n    {\n        Request memory request = Request({\n            description:description,\n            value:value,\n            recipient:recipient,\n            isComplete:false,\n            approvalCount:0\n        });\n        \n        requests.push(request);\n        emit RequestCreated(request.description,request.value,request.recipient);\n    }\n    \n    /**\n    @notice Allows a contributor to the campaign approve a request created by the owner if not already approved\n            by the contributor\n    @param index Index of the request in the request array that contributor wants to approve\n     */\n    function approveRequest(uint index) public {\n\n        Request storage request = requests[index];\n        require(approvers[msg.sender]);\n        require(!request.approvals[msg.sender]);\n        request.approvals[msg.sender]=true;\n        request.approvalCount = (request.approvalCount).add(1);\n    }\n    \n    /**\n    @notice Allows the owner to finalize the request if the more than 50% contributors approve the \n            request and release the funds to the recipient defined in the request\n    @dev    using whenNotPaused modifier from Pausable contract for implementing emergency stop pattern\n            performing contract related work before calling transfer to prevent reentrancy attacks\n    @param index Index of the request in the request array that needs to be finalized\n     */\n    function finalizeRequest(uint index) \n        public onlyOwner whenNotPaused{\n        Request storage request = requests[index];\n        require(request.approvalCount>(approversCount/2));\n        require(!request.isComplete);\n        request.isComplete = true;\n        address receiver = request.recipient;\n        receiver.transfer(request.value);\n        emit RequestFinalized(request.recipient,request.value);\n    }\n\n    /**\n    @notice Publishes the summary of the campaign\n    @return Minimum Contribution, Balance, Number of requests, Number of approvers and Owner's address\n     */\n    function getSummary() public view returns(uint,uint,uint,uint,address,string) {\n        return(\n            minimumContribution,\n            address(this).balance,\n            requests.length,\n            approversCount,\n            owner,\n            imageHash\n        );\n    }\n\n    /**\n    @notice Returns the number of requests\n    @dev As Solidity does not return the entire array, getting the count to make individual calls \n         for retrieving the details of the requests\n    @return Number of requests created for a particular campaign\n     */\n    function getRequestCount() public view returns(uint){\n        return requests.length;\n    }\n}",
  "sourcePath": "/Users/siva/EtherProjects/Campaign/contracts/Campaign.sol",
  "compiler": {
    "name": "solc",
    "version": "0.4.24+commit.e67f0147.Emscripten.clang"
  },
  "schemaVersion": "2.0.1",
  "updatedAt": "2018-12-15T23:29:07.799Z"
}