{
  "contractName": "Campaign",
  "abi": [
    {
      "constant": true,
      "inputs": [
        {
          "name": "",
          "type": "address"
        }
      ],
      "name": "approvers",
      "outputs": [
        {
          "name": "",
          "type": "bool"
        }
      ],
      "payable": false,
      "stateMutability": "view",
      "type": "function"
    },
    {
      "constant": false,
      "inputs": [],
      "name": "unpause",
      "outputs": [],
      "payable": false,
      "stateMutability": "nonpayable",
      "type": "function"
    },
    {
      "constant": true,
      "inputs": [
        {
          "name": "account",
          "type": "address"
        }
      ],
      "name": "isPauser",
      "outputs": [
        {
          "name": "",
          "type": "bool"
        }
      ],
      "payable": false,
      "stateMutability": "view",
      "type": "function"
    },
    {
      "constant": true,
      "inputs": [],
      "name": "myLighthouse",
      "outputs": [
        {
          "name": "",
          "type": "address"
        }
      ],
      "payable": false,
      "stateMutability": "view",
      "type": "function"
    },
    {
      "constant": true,
      "inputs": [],
      "name": "paused",
      "outputs": [
        {
          "name": "",
          "type": "bool"
        }
      ],
      "payable": false,
      "stateMutability": "view",
      "type": "function"
    },
    {
      "constant": false,
      "inputs": [],
      "name": "renouncePauser",
      "outputs": [],
      "payable": false,
      "stateMutability": "nonpayable",
      "type": "function"
    },
    {
      "constant": true,
      "inputs": [
        {
          "name": "",
          "type": "uint256"
        }
      ],
      "name": "requests",
      "outputs": [
        {
          "name": "description",
          "type": "string"
        },
        {
          "name": "value",
          "type": "uint256"
        },
        {
          "name": "recipient",
          "type": "address"
        },
        {
          "name": "isComplete",
          "type": "bool"
        },
        {
          "name": "approvalCount",
          "type": "uint256"
        }
      ],
      "payable": false,
      "stateMutability": "view",
      "type": "function"
    },
    {
      "constant": false,
      "inputs": [
        {
          "name": "account",
          "type": "address"
        }
      ],
      "name": "addPauser",
      "outputs": [],
      "payable": false,
      "stateMutability": "nonpayable",
      "type": "function"
    },
    {
      "constant": true,
      "inputs": [],
      "name": "approversCount",
      "outputs": [
        {
          "name": "",
          "type": "uint256"
        }
      ],
      "payable": false,
      "stateMutability": "view",
      "type": "function"
    },
    {
      "constant": false,
      "inputs": [],
      "name": "pause",
      "outputs": [],
      "payable": false,
      "stateMutability": "nonpayable",
      "type": "function"
    },
    {
      "constant": true,
      "inputs": [],
      "name": "owner",
      "outputs": [
        {
          "name": "",
          "type": "address"
        }
      ],
      "payable": false,
      "stateMutability": "view",
      "type": "function"
    },
    {
      "inputs": [
        {
          "name": "minimumAmount",
          "type": "uint256"
        },
        {
          "name": "creator",
          "type": "address"
        },
        {
          "name": "imgHash",
          "type": "string"
        },
        {
          "name": "_campaignName",
          "type": "string"
        }
      ],
      "payable": false,
      "stateMutability": "nonpayable",
      "type": "constructor"
    },
    {
      "anonymous": false,
      "inputs": [
        {
          "indexed": false,
          "name": "description",
          "type": "string"
        },
        {
          "indexed": false,
          "name": "value",
          "type": "uint256"
        },
        {
          "indexed": false,
          "name": "recipient",
          "type": "address"
        }
      ],
      "name": "RequestCreated",
      "type": "event"
    },
    {
      "anonymous": false,
      "inputs": [
        {
          "indexed": false,
          "name": "recipient",
          "type": "address"
        },
        {
          "indexed": false,
          "name": "value",
          "type": "uint256"
        }
      ],
      "name": "RequestFinalized",
      "type": "event"
    },
    {
      "anonymous": false,
      "inputs": [
        {
          "indexed": false,
          "name": "account",
          "type": "address"
        }
      ],
      "name": "Paused",
      "type": "event"
    },
    {
      "anonymous": false,
      "inputs": [
        {
          "indexed": false,
          "name": "account",
          "type": "address"
        }
      ],
      "name": "Unpaused",
      "type": "event"
    },
    {
      "anonymous": false,
      "inputs": [
        {
          "indexed": true,
          "name": "account",
          "type": "address"
        }
      ],
      "name": "PauserAdded",
      "type": "event"
    },
    {
      "anonymous": false,
      "inputs": [
        {
          "indexed": true,
          "name": "account",
          "type": "address"
        }
      ],
      "name": "PauserRemoved",
      "type": "event"
    },
    {
      "constant": false,
      "inputs": [],
      "name": "contribute",
      "outputs": [],
      "payable": true,
      "stateMutability": "payable",
      "type": "function"
    },
    {
      "constant": false,
      "inputs": [
        {
          "name": "description",
          "type": "string"
        },
        {
          "name": "value",
          "type": "uint256"
        },
        {
          "name": "recipient",
          "type": "address"
        }
      ],
      "name": "createRequest",
      "outputs": [],
      "payable": false,
      "stateMutability": "nonpayable",
      "type": "function"
    },
    {
      "constant": false,
      "inputs": [
        {
          "name": "index",
          "type": "uint256"
        }
      ],
      "name": "approveRequest",
      "outputs": [],
      "payable": false,
      "stateMutability": "nonpayable",
      "type": "function"
    },
    {
      "constant": false,
      "inputs": [
        {
          "name": "index",
          "type": "uint256"
        }
      ],
      "name": "finalizeRequest",
      "outputs": [],
      "payable": false,
      "stateMutability": "nonpayable",
      "type": "function"
    },
    {
      "constant": true,
      "inputs": [],
      "name": "getSummary",
      "outputs": [
        {
          "name": "",
          "type": "uint256"
        },
        {
          "name": "",
          "type": "uint256"
        },
        {
          "name": "",
          "type": "uint256"
        },
        {
          "name": "",
          "type": "uint256"
        },
        {
          "name": "",
          "type": "address"
        },
        {
          "name": "",
          "type": "string"
        }
      ],
      "payable": false,
      "stateMutability": "view",
      "type": "function"
    },
    {
      "constant": true,
      "inputs": [],
      "name": "getRequestCount",
      "outputs": [
        {
          "name": "",
          "type": "uint256"
        }
      ],
      "payable": false,
      "stateMutability": "view",
      "type": "function"
    },
    {
      "constant": false,
      "inputs": [],
      "name": "kill",
      "outputs": [],
      "payable": false,
      "stateMutability": "nonpayable",
      "type": "function"
    }
  ],
  "bytecode": "0x60806040523480156200001157600080fd5b506040516200190238038062001902833981018060405281019080805190602001909291908051906020019092919080518201929190602001805182019291905050506200006e336200010d640100000000026401000000009004565b6000600160006101000a81548160ff02191690831515021790555082600260006101000a81548173ffffffffffffffffffffffffffffffffffffffff021916908373ffffffffffffffffffffffffffffffffffffffff160217905550836005819055508160039080519060200190620000e9929190620002cf565b50806004908051906020019062000102929190620002cf565b50505050506200037e565b620001318160006200017764010000000002620013ab179091906401000000009004565b8073ffffffffffffffffffffffffffffffffffffffff167f6719d08c1888103bea251a4ed56406bd0c3e69723c8a1686e017e7bbe159b6f860405160405180910390a250565b600073ffffffffffffffffffffffffffffffffffffffff168173ffffffffffffffffffffffffffffffffffffffff1614151515620001b457600080fd5b620001cf82826200023a640100000000026401000000009004565b151515620001dc57600080fd5b60018260000160008373ffffffffffffffffffffffffffffffffffffffff1673ffffffffffffffffffffffffffffffffffffffff16815260200190815260200160002060006101000a81548160ff0219169083151502179055505050565b60008073ffffffffffffffffffffffffffffffffffffffff168273ffffffffffffffffffffffffffffffffffffffff16141515156200027857600080fd5b8260000160008373ffffffffffffffffffffffffffffffffffffffff1673ffffffffffffffffffffffffffffffffffffffff16815260200190815260200160002060009054906101000a900460ff16905092915050565b828054600181600116156101000203166002900490600052602060002090601f016020900481019282601f106200031257805160ff191683800117855562000343565b8280016001018555821562000343579182015b828111156200034257825182559160200191906001019062000325565b5b50905062000352919062000356565b5090565b6200037b91905b80821115620003775760008160009055506001016200035d565b5090565b90565b611574806200038e6000396000f3006080604052600436106100fc576000357c0100000000000000000000000000000000000000000000000000000000900463ffffffff16806303441006146101015780630a1443911461012e5780633f4ba83a146101895780633fad1834146101a05780634051ddac146101cb57806341c0e1b5146102aa57806346fbf68e146102c1578063524704ac1461031c5780635c975abb146103735780636ef8d66d146103a257806381d12c58146103b957806382dc1ec4146104ab57806382fde093146104ee5780638456cb59146105195780638a9cfd55146105305780638da5cb5b146105c3578063d7bb99ba1461061a578063d7d1bbdb14610624575b600080fd5b34801561010d57600080fd5b5061012c60048036038101908080359060200190929190505050610651565b005b34801561013a57600080fd5b5061016f600480360381019080803573ffffffffffffffffffffffffffffffffffffffff169060200190929190505050610857565b604051808215151515815260200191505060405180910390f35b34801561019557600080fd5b5061019e610877565b005b3480156101ac57600080fd5b506101b5610926565b6040518082815260200191505060405180910390f35b3480156101d757600080fd5b506101e0610933565b604051808781526020018681526020018581526020018481526020018373ffffffffffffffffffffffffffffffffffffffff1673ffffffffffffffffffffffffffffffffffffffff16815260200180602001828103825283818151815260200191508051906020019080838360005b8381101561026a57808201518184015260208101905061024f565b50505050905090810190601f1680156102975780820380516001836020036101000a031916815260200191505b5097505050505050505060405180910390f35b3480156102b657600080fd5b506102bf610a36565b005b3480156102cd57600080fd5b50610302600480360381019080803573ffffffffffffffffffffffffffffffffffffffff169060200190929190505050610acd565b604051808215151515815260200191505060405180910390f35b34801561032857600080fd5b50610331610aea565b604051808273ffffffffffffffffffffffffffffffffffffffff1673ffffffffffffffffffffffffffffffffffffffff16815260200191505060405180910390f35b34801561037f57600080fd5b50610388610b0f565b604051808215151515815260200191505060405180910390f35b3480156103ae57600080fd5b506103b7610b26565b005b3480156103c557600080fd5b506103e460048036038101908080359060200190929190505050610b31565b60405180806020018681526020018573ffffffffffffffffffffffffffffffffffffffff1673ffffffffffffffffffffffffffffffffffffffff16815260200184151515158152602001838152602001828103825287818151815260200191508051906020019080838360005b8381101561046c578082015181840152602081019050610451565b50505050905090810190601f1680156104995780820380516001836020036101000a031916815260200191505b50965050505050505060405180910390f35b3480156104b757600080fd5b506104ec600480360381019080803573ffffffffffffffffffffffffffffffffffffffff169060200190929190505050610c3b565b005b3480156104fa57600080fd5b50610503610c5b565b6040518082815260200191505060405180910390f35b34801561052557600080fd5b5061052e610c61565b005b34801561053c57600080fd5b506105c1600480360381019080803590602001908201803590602001908080601f016020809104026020016040519081016040528093929190818152602001838380828437820191505050505050919291929080359060200190929190803573ffffffffffffffffffffffffffffffffffffffff169060200190929190505050610d10565b005b3480156105cf57600080fd5b506105d8610f6b565b604051808273ffffffffffffffffffffffffffffffffffffffff1673ffffffffffffffffffffffffffffffffffffffff16815260200191505060405180910390f35b610622610f91565b005b34801561063057600080fd5b5061064f60048036038101908080359060200190929190505050611017565b005b6000803373ffffffffffffffffffffffffffffffffffffffff16600260009054906101000a900473ffffffffffffffffffffffffffffffffffffffff1673ffffffffffffffffffffffffffffffffffffffff161415156106b057600080fd5b600160009054906101000a900460ff161515156106cc57600080fd5b6008838154811015156106db57fe5b90600052602060002090600502019150610701600260065461116990919063ffffffff16565b826004015411151561071257600080fd5b8160020160149054906101000a900460ff1615151561073057600080fd5b60018260020160146101000a81548160ff0219169083151502179055508160020160009054906101000a900473ffffffffffffffffffffffffffffffffffffffff1690508073ffffffffffffffffffffffffffffffffffffffff166108fc83600101549081150290604051600060405180830381858888f193505050501580156107be573d6000803e3d6000fd5b507f15cf4d7980b6be9411b518575337aca2b746a23acbd3978bec4a1eb23af1415c8260020160009054906101000a900473ffffffffffffffffffffffffffffffffffffffff168360010154604051808373ffffffffffffffffffffffffffffffffffffffff1673ffffffffffffffffffffffffffffffffffffffff1681526020018281526020019250505060405180910390a1505050565b60076020528060005260406000206000915054906101000a900460ff1681565b61088033610acd565b151561088b57600080fd5b600160009054906101000a900460ff1615156108a657600080fd5b6000600160006101000a81548160ff0219169083151502179055507f5db9ee0a495bf2e6ff9c91a7834c1ba4fdd244a5e8aa4e537bd38aeae4b073aa33604051808273ffffffffffffffffffffffffffffffffffffffff1673ffffffffffffffffffffffffffffffffffffffff16815260200191505060405180910390a1565b6000600880549050905090565b600080600080600060606005543073ffffffffffffffffffffffffffffffffffffffff1631600880549050600654600260009054906101000a900473ffffffffffffffffffffffffffffffffffffffff166003808054600181600116156101000203166002900480601f016020809104026020016040519081016040528092919081815260200182805460018160011615610100020316600290048015610a1b5780601f106109f057610100808354040283529160200191610a1b565b820191906000526020600020905b8154815290600101906020018083116109fe57829003601f168201915b50505050509050955095509550955095509550909192939495565b3373ffffffffffffffffffffffffffffffffffffffff16600260009054906101000a900473ffffffffffffffffffffffffffffffffffffffff1673ffffffffffffffffffffffffffffffffffffffff16141515610a9257600080fd5b600260009054906101000a900473ffffffffffffffffffffffffffffffffffffffff1673ffffffffffffffffffffffffffffffffffffffff16ff5b6000610ae382600061119390919063ffffffff16565b9050919050565b6001809054906101000a900473ffffffffffffffffffffffffffffffffffffffff1681565b6000600160009054906101000a900460ff16905090565b610b2f33611227565b565b600881815481101515610b4057fe5b9060005260206000209060050201600091509050806000018054600181600116156101000203166002900480601f016020809104026020016040519081016040528092919081815260200182805460018160011615610100020316600290048015610bec5780601f10610bc157610100808354040283529160200191610bec565b820191906000526020600020905b815481529060010190602001808311610bcf57829003601f168201915b5050505050908060010154908060020160009054906101000a900473ffffffffffffffffffffffffffffffffffffffff16908060020160149054906101000a900460ff16908060040154905085565b610c4433610acd565b1515610c4f57600080fd5b610c5881611281565b50565b60065481565b610c6a33610acd565b1515610c7557600080fd5b600160009054906101000a900460ff16151515610c9157600080fd5b60018060006101000a81548160ff0219169083151502179055507f62e78cea01bee320cd4e420270b5ea74000d11b0c9f74754ebdbfc544b05a25833604051808273ffffffffffffffffffffffffffffffffffffffff1673ffffffffffffffffffffffffffffffffffffffff16815260200191505060405180910390a1565b610d1861145b565b3373ffffffffffffffffffffffffffffffffffffffff16600260009054906101000a900473ffffffffffffffffffffffffffffffffffffffff1673ffffffffffffffffffffffffffffffffffffffff16141515610d7457600080fd5b60a0604051908101604052808581526020018481526020018373ffffffffffffffffffffffffffffffffffffffff16815260200160001515815260200160008152509050600881908060018154018082558091505090600182039060005260206000209060050201600090919290919091506000820151816000019080519060200190610e029291906114a3565b506020820151816001015560408201518160020160006101000a81548173ffffffffffffffffffffffffffffffffffffffff021916908373ffffffffffffffffffffffffffffffffffffffff16021790555060608201518160020160146101000a81548160ff021916908315150217905550608082015181600401555050507f7c8193f35c0be0f0de85a76806a85eb113857a95308e004a23313fa4dda3293e81600001518260200151836040015160405180806020018481526020018373ffffffffffffffffffffffffffffffffffffffff1673ffffffffffffffffffffffffffffffffffffffff168152602001828103825285818151815260200191508051906020019080838360005b83811015610f29578082015181840152602081019050610f0e565b50505050905090810190601f168015610f565780820380516001836020036101000a031916815260200191505b5094505050505060405180910390a150505050565b600260009054906101000a900473ffffffffffffffffffffffffffffffffffffffff1681565b60055434111515610fa157600080fd5b6001600760003373ffffffffffffffffffffffffffffffffffffffff1673ffffffffffffffffffffffffffffffffffffffff16815260200190815260200160002060006101000a81548160ff02191690831515021790555061100f60016006546112db90919063ffffffff16565b600681905550565b600060088281548110151561102857fe5b90600052602060002090600502019050600760003373ffffffffffffffffffffffffffffffffffffffff1673ffffffffffffffffffffffffffffffffffffffff16815260200190815260200160002060009054906101000a900460ff16151561109057600080fd5b8060030160003373ffffffffffffffffffffffffffffffffffffffff1673ffffffffffffffffffffffffffffffffffffffff16815260200190815260200160002060009054906101000a900460ff161515156110eb57600080fd5b60018160030160003373ffffffffffffffffffffffffffffffffffffffff1673ffffffffffffffffffffffffffffffffffffffff16815260200190815260200160002060006101000a81548160ff02191690831515021790555061115d600182600401546112db90919063ffffffff16565b81600401819055505050565b60008060008311151561117b57600080fd5b828481151561118657fe5b0490508091505092915050565b60008073ffffffffffffffffffffffffffffffffffffffff168273ffffffffffffffffffffffffffffffffffffffff16141515156111d057600080fd5b8260000160008373ffffffffffffffffffffffffffffffffffffffff1673ffffffffffffffffffffffffffffffffffffffff16815260200190815260200160002060009054906101000a900460ff16905092915050565b61123b8160006112fc90919063ffffffff16565b8073ffffffffffffffffffffffffffffffffffffffff167fcd265ebaf09df2871cc7bd4133404a235ba12eff2041bb89d9c714a2621c7c7e60405160405180910390a250565b6112958160006113ab90919063ffffffff16565b8073ffffffffffffffffffffffffffffffffffffffff167f6719d08c1888103bea251a4ed56406bd0c3e69723c8a1686e017e7bbe159b6f860405160405180910390a250565b60008082840190508381101515156112f257600080fd5b8091505092915050565b600073ffffffffffffffffffffffffffffffffffffffff168173ffffffffffffffffffffffffffffffffffffffff161415151561133857600080fd5b6113428282611193565b151561134d57600080fd5b60008260000160008373ffffffffffffffffffffffffffffffffffffffff1673ffffffffffffffffffffffffffffffffffffffff16815260200190815260200160002060006101000a81548160ff0219169083151502179055505050565b600073ffffffffffffffffffffffffffffffffffffffff168173ffffffffffffffffffffffffffffffffffffffff16141515156113e757600080fd5b6113f18282611193565b1515156113fd57600080fd5b60018260000160008373ffffffffffffffffffffffffffffffffffffffff1673ffffffffffffffffffffffffffffffffffffffff16815260200190815260200160002060006101000a81548160ff0219169083151502179055505050565b60a0604051908101604052806060815260200160008152602001600073ffffffffffffffffffffffffffffffffffffffff168152602001600015158152602001600081525090565b828054600181600116156101000203166002900490600052602060002090601f016020900481019282601f106114e457805160ff1916838001178555611512565b82800160010185558215611512579182015b828111156115115782518255916020019190600101906114f6565b5b50905061151f9190611523565b5090565b61154591905b80821115611541576000816000905550600101611529565b5090565b905600a165627a7a723058204f2fabfaa8180bf75971c8dedea71b6a147a59be21e58a0d223168036e10dcae0029",
  "source": "pragma solidity 0.4.24;\n\nimport \"openzeppelin-solidity/contracts/lifecycle/Pausable.sol\";\nimport \"openzeppelin-solidity/contracts/math/SafeMath.sol\";\nimport \"./ILighthouse.sol\";\n\n/**\n@title Contract to implement functionality related to management of a campaign. \n@dev   Extends Pausable contract to implement Emergency Stop Pattern\n@author Siva Puvvada\n */\ncontract Campaign is Pausable{\n\n    using SafeMath for uint;\n\n    ILighthouse  public myLighthouse;\n    \n    struct Request{\n        string description;\n        uint value;\n        address recipient;\n        bool isComplete;\n        mapping(address=>bool) approvals;\n        uint approvalCount;\n    }\n    \n    address public owner;\n    string private imageHash;\n    string private campaignName;\n    uint private minimumContribution;\n    uint public approversCount;\n    mapping(address=>bool) public approvers;\n    Request[] public requests;\n    \n    event RequestCreated(string description,uint value, address recipient);\n    event RequestFinalized(address recipient,uint value);\n\n    /**\n    @dev Modifier to check if the sender is the owner of the contract\n     */\n    modifier onlyOwner{\n        require(owner == msg.sender);\n        _;\n    }\n    \n    /**\n    @notice Contructor to create a new Campaign\n    @param minimumAmount Minimim Contribution required for this campaign\n    @param creator Owner of the Campaign\n    @param imgHash IPFS hash of the banner image\n     */\n    constructor(uint minimumAmount, address creator, string imgHash, string _campaignName) public {\n        owner = creator;\n        minimumContribution = minimumAmount;\n        imageHash = imgHash;\n        campaignName = _campaignName;\n    }\n    \n    /**\n    @notice This function allows a user to contribute to a campaign if he is contributing a minimum amount\n           as defined by the owner of the campaign\n    @author Siva Puvvada\n     */\n    function contribute() payable public {\n        require(msg.value > minimumContribution);\n        approvers[msg.sender] = true;\n        approversCount = approversCount.add(1);\n    }\n    \n    /**\n    @notice Allows contract's owner to create a request for release of funds to a recipient\n    @param description Description of the request\n    @param value Amount required for this request\n    @param recipient Vendor who provides goods/services in return of funds\n     */\n    function createRequest(string memory description, uint value, address recipient) \n        public onlyOwner \n    {\n        Request memory request = Request({\n            description:description,\n            value:value,\n            recipient:recipient,\n            isComplete:false,\n            approvalCount:0\n        });\n        \n        requests.push(request);\n        emit RequestCreated(request.description,request.value,request.recipient);\n    }\n    \n    /**\n    @notice Allows a contributor to the campaign approve a request created by the owner if not already approved\n            by the contributor\n    @param index Index of the request in the request array that contributor wants to approve\n     */\n    function approveRequest(uint index) public {\n\n        Request storage request = requests[index];\n        require(approvers[msg.sender]);\n        require(!request.approvals[msg.sender]);\n        request.approvals[msg.sender]=true;\n        request.approvalCount = (request.approvalCount).add(1);\n    }\n    \n    /**\n    @notice Allows the owner to finalize the request if the more than 50% contributors approve the \n            request and release the funds to the recipient defined in the request\n    @dev    using whenNotPaused modifier from Pausable contract for implementing emergency stop pattern\n            performing contract related work before calling transfer to prevent reentrancy attacks\n    @param index Index of the request in the request array that needs to be finalized\n     */\n    function finalizeRequest(uint index) \n        public onlyOwner whenNotPaused{\n        Request storage request = requests[index];\n        require(request.approvalCount>(approversCount.div(2)));\n        require(!request.isComplete);\n        request.isComplete = true;\n        address receiver = request.recipient;\n        receiver.transfer(request.value);\n        emit RequestFinalized(request.recipient,request.value);\n    }\n\n    /**\n    @notice Publishes the summary of the campaign\n    @return Minimum Contribution, Balance, Number of requests, Number of approvers and Owner's address\n     */\n    function getSummary() public view returns(uint,uint,uint,uint,address,string) {\n\n        return(\n            minimumContribution,\n            address(this).balance,\n            requests.length,\n            approversCount,\n            owner,\n            imageHash\n        );\n    }\n\n    /**\n    @notice Returns the number of requests\n    @dev As Solidity does not return the entire array, getting the count to make individual calls \n         for retrieving the details of the requests\n    @return Number of requests created for a particular campaign\n     */\n    function getRequestCount() public view returns(uint){\n        return requests.length;\n    }\n\n    /**\n    @dev This method provides an ability to destroy and remove the contract from blockchain\n     */\n    function kill() public onlyOwner{\n        selfdestruct(owner);\n    }\n}",
  "sourcePath": "/Users/siva/EtherProjects/Campaign/contracts/Campaign.sol",
  "compiler": {
    "name": "solc",
    "version": "0.4.24+commit.e67f0147.Emscripten.clang"
  },
  "schemaVersion": "2.0.1",
  "updatedAt": "2019-02-16T21:40:57.318Z"
}