{
  "contractName": "CampaignFactory",
  "abi": [
    {
      "constant": true,
      "inputs": [
        {
          "name": "",
          "type": "uint256"
        }
      ],
      "name": "campaigns",
      "outputs": [
        {
          "name": "",
          "type": "address"
        }
      ],
      "payable": false,
      "stateMutability": "view",
      "type": "function"
    },
    {
      "constant": true,
      "inputs": [],
      "name": "myLighthouse",
      "outputs": [
        {
          "name": "",
          "type": "address"
        }
      ],
      "payable": false,
      "stateMutability": "view",
      "type": "function"
    },
    {
      "inputs": [
        {
          "name": "_myLighthouse",
          "type": "address"
        }
      ],
      "payable": false,
      "stateMutability": "nonpayable",
      "type": "constructor"
    },
    {
      "constant": false,
      "inputs": [
        {
          "name": "minimumContribution",
          "type": "uint256"
        },
        {
          "name": "imgHash",
          "type": "string"
        },
        {
          "name": "campaignName",
          "type": "string"
        }
      ],
      "name": "createCampaign",
      "outputs": [],
      "payable": false,
      "stateMutability": "nonpayable",
      "type": "function"
    },
    {
      "constant": true,
      "inputs": [],
      "name": "getDeployedCampaigns",
      "outputs": [
        {
          "name": "",
          "type": "address[]"
        }
      ],
      "payable": false,
      "stateMutability": "view",
      "type": "function"
    }
  ],
  "bytecode": "0x608060405234801561001057600080fd5b50604051602080611f4a83398101806040528101908080519060200190929190505050806000806101000a81548173ffffffffffffffffffffffffffffffffffffffff021916908373ffffffffffffffffffffffffffffffffffffffff16021790555050611ec7806100836000396000f300608060405260043610610062576000357c0100000000000000000000000000000000000000000000000000000000900463ffffffff168063141961bc146100675780634acb9d4f146100d4578063524704ac14610140578063fad4dee314610197575b600080fd5b34801561007357600080fd5b5061009260048036038101908080359060200190929190505050610250565b604051808273ffffffffffffffffffffffffffffffffffffffff1673ffffffffffffffffffffffffffffffffffffffff16815260200191505060405180910390f35b3480156100e057600080fd5b506100e961028e565b6040518080602001828103825283818151815260200191508051906020019060200280838360005b8381101561012c578082015181840152602081019050610111565b505050509050019250505060405180910390f35b34801561014c57600080fd5b5061015561031c565b604051808273ffffffffffffffffffffffffffffffffffffffff1673ffffffffffffffffffffffffffffffffffffffff16815260200191505060405180910390f35b3480156101a357600080fd5b5061024e60048036038101908080359060200190929190803590602001908201803590602001908080601f0160208091040260200160405190810160405280939291908181526020018383808284378201915050505050509192919290803590602001908201803590602001908080601f0160208091040260200160405190810160405280939291908181526020018383808284378201915050505050509192919290505050610341565b005b60018181548110151561025f57fe5b906000526020600020016000915054906101000a900473ffffffffffffffffffffffffffffffffffffffff1681565b6060600180548060200260200160405190810160405280929190818152602001828054801561031257602002820191906000526020600020905b8160009054906101000a900473ffffffffffffffffffffffffffffffffffffffff1673ffffffffffffffffffffffffffffffffffffffff16815260200190600101908083116102c8575b5050505050905090565b6000809054906101000a900473ffffffffffffffffffffffffffffffffffffffff1681565b60008060009054906101000a900473ffffffffffffffffffffffffffffffffffffffff1673ffffffffffffffffffffffffffffffffffffffff1663420b81f66040518163ffffffff167c01000000000000000000000000000000000000000000000000000000000281526004016040805180830381600087803b1580156103c757600080fd5b505af11580156103db573d6000803e3d6000fd5b505050506040513d60408110156103f157600080fd5b810190808051906020019092919080519060200190929190505050816fffffffffffffffffffffffffffffffff16915060026000600360008491906101000a81548160ff02191690831515021790555083919050555050833384846002546104576105fe565b808681526020018573ffffffffffffffffffffffffffffffffffffffff1673ffffffffffffffffffffffffffffffffffffffff1681526020018060200180602001848152602001838103835286818151815260200191508051906020019080838360005b838110156104d65780820151818401526020810190506104bb565b50505050905090810190601f1680156105035780820380516001836020036101000a031916815260200191505b50838103825285818151815260200191508051906020019080838360005b8381101561053c578082015181840152602081019050610521565b50505050905090810190601f1680156105695780820380516001836020036101000a031916815260200191505b50975050505050505050604051809103906000f08015801561058f573d6000803e3d6000fd5b50905060018190806001815401808255809150509060018203906000526020600020016000909192909190916101000a81548173ffffffffffffffffffffffffffffffffffffffff021916908373ffffffffffffffffffffffffffffffffffffffff1602179055505050505050565b60405161188d8061060f83390190560060806040523480156200001157600080fd5b506040516200188d3803806200188d83398101806040528101908080519060200190929190805190602001909291908051820192919060200180518201929190602001805190602001909291905050506200007b3362000121640100000000026401000000009004565b6000600160006101000a81548160ff021916908315150217905550836001806101000a81548173ffffffffffffffffffffffffffffffffffffffff021916908373ffffffffffffffffffffffffffffffffffffffff160217905550846004819055508260029080519060200190620000f5929190620002e3565b5081600390805190602001906200010e929190620002e3565b5080600681905550505050505062000392565b620001458160006200018b6401000000000262001322179091906401000000009004565b8073ffffffffffffffffffffffffffffffffffffffff167f6719d08c1888103bea251a4ed56406bd0c3e69723c8a1686e017e7bbe159b6f860405160405180910390a250565b600073ffffffffffffffffffffffffffffffffffffffff168173ffffffffffffffffffffffffffffffffffffffff1614151515620001c857600080fd5b620001e382826200024e640100000000026401000000009004565b151515620001f057600080fd5b60018260000160008373ffffffffffffffffffffffffffffffffffffffff1673ffffffffffffffffffffffffffffffffffffffff16815260200190815260200160002060006101000a81548160ff0219169083151502179055505050565b60008073ffffffffffffffffffffffffffffffffffffffff168273ffffffffffffffffffffffffffffffffffffffff16141515156200028c57600080fd5b8260000160008373ffffffffffffffffffffffffffffffffffffffff1673ffffffffffffffffffffffffffffffffffffffff16815260200190815260200160002060009054906101000a900460ff16905092915050565b828054600181600116156101000203166002900490600052602060002090601f016020900481019282601f106200032657805160ff191683800117855562000357565b8280016001018555821562000357579182015b828111156200035657825182559160200191906001019062000339565b5b5090506200036691906200036a565b5090565b6200038f91905b808211156200038b57600081600090555060010162000371565b5090565b90565b6114eb80620003a26000396000f3006080604052600436106100f1576000357c0100000000000000000000000000000000000000000000000000000000900463ffffffff16806303441006146100f65780630a144391146101235780633f4ba83a1461017e5780633fad1834146101955780634051ddac146101c057806341c0e1b51461029f57806346fbf68e146102b65780635c975abb146103115780636ef8d66d1461034057806381d12c581461035757806382dc1ec41461044957806382fde0931461048c5780638456cb59146104b75780638a9cfd55146104ce5780638da5cb5b14610561578063d7bb99ba146105b8578063d7d1bbdb146105c2575b600080fd5b34801561010257600080fd5b50610121600480360381019080803590602001909291905050506105ef565b005b34801561012f57600080fd5b50610164600480360381019080803573ffffffffffffffffffffffffffffffffffffffff1690602001909291905050506107f4565b604051808215151515815260200191505060405180910390f35b34801561018a57600080fd5b50610193610814565b005b3480156101a157600080fd5b506101aa6108c3565b6040518082815260200191505060405180910390f35b3480156101cc57600080fd5b506101d56108d0565b604051808781526020018681526020018581526020018481526020018373ffffffffffffffffffffffffffffffffffffffff1673ffffffffffffffffffffffffffffffffffffffff16815260200180602001828103825283818151815260200191508051906020019080838360005b8381101561025f578082015181840152602081019050610244565b50505050905090810190601f16801561028c5780820380516001836020036101000a031916815260200191505b5097505050505050505060405180910390f35b3480156102ab57600080fd5b506102b46109d6565b005b3480156102c257600080fd5b506102f7600480360381019080803573ffffffffffffffffffffffffffffffffffffffff169060200190929190505050610a6b565b604051808215151515815260200191505060405180910390f35b34801561031d57600080fd5b50610326610a88565b604051808215151515815260200191505060405180910390f35b34801561034c57600080fd5b50610355610a9f565b005b34801561036357600080fd5b5061038260048036038101908080359060200190929190505050610aaa565b60405180806020018681526020018573ffffffffffffffffffffffffffffffffffffffff1673ffffffffffffffffffffffffffffffffffffffff16815260200184151515158152602001838152602001828103825287818151815260200191508051906020019080838360005b8381101561040a5780820151818401526020810190506103ef565b50505050905090810190601f1680156104375780820380516001836020036101000a031916815260200191505b50965050505050505060405180910390f35b34801561045557600080fd5b5061048a600480360381019080803573ffffffffffffffffffffffffffffffffffffffff169060200190929190505050610bb4565b005b34801561049857600080fd5b506104a1610bd4565b6040518082815260200191505060405180910390f35b3480156104c357600080fd5b506104cc610bda565b005b3480156104da57600080fd5b5061055f600480360381019080803590602001908201803590602001908080601f016020809104026020016040519081016040528093929190818152602001838380828437820191505050505050919291929080359060200190929190803573ffffffffffffffffffffffffffffffffffffffff169060200190929190505050610c89565b005b34801561056d57600080fd5b50610576610ee3565b604051808273ffffffffffffffffffffffffffffffffffffffff1673ffffffffffffffffffffffffffffffffffffffff16815260200191505060405180910390f35b6105c0610f08565b005b3480156105ce57600080fd5b506105ed60048036038101908080359060200190929190505050610f8e565b005b6000803373ffffffffffffffffffffffffffffffffffffffff166001809054906101000a900473ffffffffffffffffffffffffffffffffffffffff1673ffffffffffffffffffffffffffffffffffffffff1614151561064d57600080fd5b600160009054906101000a900460ff1615151561066957600080fd5b60098381548110151561067857fe5b9060005260206000209060050201915061069e60026005546110e090919063ffffffff16565b82600401541115156106af57600080fd5b8160020160149054906101000a900460ff161515156106cd57600080fd5b60018260020160146101000a81548160ff0219169083151502179055508160020160009054906101000a900473ffffffffffffffffffffffffffffffffffffffff1690508073ffffffffffffffffffffffffffffffffffffffff166108fc83600101549081150290604051600060405180830381858888f1935050505015801561075b573d6000803e3d6000fd5b507f15cf4d7980b6be9411b518575337aca2b746a23acbd3978bec4a1eb23af1415c8260020160009054906101000a900473ffffffffffffffffffffffffffffffffffffffff168360010154604051808373ffffffffffffffffffffffffffffffffffffffff1673ffffffffffffffffffffffffffffffffffffffff1681526020018281526020019250505060405180910390a1505050565b60086020528060005260406000206000915054906101000a900460ff1681565b61081d33610a6b565b151561082857600080fd5b600160009054906101000a900460ff16151561084357600080fd5b6000600160006101000a81548160ff0219169083151502179055507f5db9ee0a495bf2e6ff9c91a7834c1ba4fdd244a5e8aa4e537bd38aeae4b073aa33604051808273ffffffffffffffffffffffffffffffffffffffff1673ffffffffffffffffffffffffffffffffffffffff16815260200191505060405180910390a1565b6000600980549050905090565b600080600080600060606004546006543073ffffffffffffffffffffffffffffffffffffffff1631026009805490506005546001809054906101000a900473ffffffffffffffffffffffffffffffffffffffff166002808054600181600116156101000203166002900480601f0160208091040260200160405190810160405280929190818152602001828054600181600116156101000203166002900480156109bb5780601f10610990576101008083540402835291602001916109bb565b820191906000526020600020905b81548152906001019060200180831161099e57829003601f168201915b50505050509050955095509550955095509550909192939495565b3373ffffffffffffffffffffffffffffffffffffffff166001809054906101000a900473ffffffffffffffffffffffffffffffffffffffff1673ffffffffffffffffffffffffffffffffffffffff16141515610a3157600080fd5b6001809054906101000a900473ffffffffffffffffffffffffffffffffffffffff1673ffffffffffffffffffffffffffffffffffffffff16ff5b6000610a8182600061110a90919063ffffffff16565b9050919050565b6000600160009054906101000a900460ff16905090565b610aa83361119e565b565b600981815481101515610ab957fe5b9060005260206000209060050201600091509050806000018054600181600116156101000203166002900480601f016020809104026020016040519081016040528092919081815260200182805460018160011615610100020316600290048015610b655780601f10610b3a57610100808354040283529160200191610b65565b820191906000526020600020905b815481529060010190602001808311610b4857829003601f168201915b5050505050908060010154908060020160009054906101000a900473ffffffffffffffffffffffffffffffffffffffff16908060020160149054906101000a900460ff16908060040154905085565b610bbd33610a6b565b1515610bc857600080fd5b610bd1816111f8565b50565b60055481565b610be333610a6b565b1515610bee57600080fd5b600160009054906101000a900460ff16151515610c0a57600080fd5b60018060006101000a81548160ff0219169083151502179055507f62e78cea01bee320cd4e420270b5ea74000d11b0c9f74754ebdbfc544b05a25833604051808273ffffffffffffffffffffffffffffffffffffffff1673ffffffffffffffffffffffffffffffffffffffff16815260200191505060405180910390a1565b610c916113d2565b3373ffffffffffffffffffffffffffffffffffffffff166001809054906101000a900473ffffffffffffffffffffffffffffffffffffffff1673ffffffffffffffffffffffffffffffffffffffff16141515610cec57600080fd5b60a0604051908101604052808581526020018481526020018373ffffffffffffffffffffffffffffffffffffffff16815260200160001515815260200160008152509050600981908060018154018082558091505090600182039060005260206000209060050201600090919290919091506000820151816000019080519060200190610d7a92919061141a565b506020820151816001015560408201518160020160006101000a81548173ffffffffffffffffffffffffffffffffffffffff021916908373ffffffffffffffffffffffffffffffffffffffff16021790555060608201518160020160146101000a81548160ff021916908315150217905550608082015181600401555050507f7c8193f35c0be0f0de85a76806a85eb113857a95308e004a23313fa4dda3293e81600001518260200151836040015160405180806020018481526020018373ffffffffffffffffffffffffffffffffffffffff1673ffffffffffffffffffffffffffffffffffffffff168152602001828103825285818151815260200191508051906020019080838360005b83811015610ea1578082015181840152602081019050610e86565b50505050905090810190601f168015610ece5780820380516001836020036101000a031916815260200191505b5094505050505060405180910390a150505050565b6001809054906101000a900473ffffffffffffffffffffffffffffffffffffffff1681565b60045434111515610f1857600080fd5b6001600860003373ffffffffffffffffffffffffffffffffffffffff1673ffffffffffffffffffffffffffffffffffffffff16815260200190815260200160002060006101000a81548160ff021916908315150217905550610f86600160055461125290919063ffffffff16565b600581905550565b6000600982815481101515610f9f57fe5b90600052602060002090600502019050600860003373ffffffffffffffffffffffffffffffffffffffff1673ffffffffffffffffffffffffffffffffffffffff16815260200190815260200160002060009054906101000a900460ff16151561100757600080fd5b8060030160003373ffffffffffffffffffffffffffffffffffffffff1673ffffffffffffffffffffffffffffffffffffffff16815260200190815260200160002060009054906101000a900460ff1615151561106257600080fd5b60018160030160003373ffffffffffffffffffffffffffffffffffffffff1673ffffffffffffffffffffffffffffffffffffffff16815260200190815260200160002060006101000a81548160ff0219169083151502179055506110d46001826004015461125290919063ffffffff16565b81600401819055505050565b6000806000831115156110f257600080fd5b82848115156110fd57fe5b0490508091505092915050565b60008073ffffffffffffffffffffffffffffffffffffffff168273ffffffffffffffffffffffffffffffffffffffff161415151561114757600080fd5b8260000160008373ffffffffffffffffffffffffffffffffffffffff1673ffffffffffffffffffffffffffffffffffffffff16815260200190815260200160002060009054906101000a900460ff16905092915050565b6111b281600061127390919063ffffffff16565b8073ffffffffffffffffffffffffffffffffffffffff167fcd265ebaf09df2871cc7bd4133404a235ba12eff2041bb89d9c714a2621c7c7e60405160405180910390a250565b61120c81600061132290919063ffffffff16565b8073ffffffffffffffffffffffffffffffffffffffff167f6719d08c1888103bea251a4ed56406bd0c3e69723c8a1686e017e7bbe159b6f860405160405180910390a250565b600080828401905083811015151561126957600080fd5b8091505092915050565b600073ffffffffffffffffffffffffffffffffffffffff168173ffffffffffffffffffffffffffffffffffffffff16141515156112af57600080fd5b6112b9828261110a565b15156112c457600080fd5b60008260000160008373ffffffffffffffffffffffffffffffffffffffff1673ffffffffffffffffffffffffffffffffffffffff16815260200190815260200160002060006101000a81548160ff0219169083151502179055505050565b600073ffffffffffffffffffffffffffffffffffffffff168173ffffffffffffffffffffffffffffffffffffffff161415151561135e57600080fd5b611368828261110a565b15151561137457600080fd5b60018260000160008373ffffffffffffffffffffffffffffffffffffffff1673ffffffffffffffffffffffffffffffffffffffff16815260200190815260200160002060006101000a81548160ff0219169083151502179055505050565b60a0604051908101604052806060815260200160008152602001600073ffffffffffffffffffffffffffffffffffffffff168152602001600015158152602001600081525090565b828054600181600116156101000203166002900490600052602060002090601f016020900481019282601f1061145b57805160ff1916838001178555611489565b82800160010185558215611489579182015b8281111561148857825182559160200191906001019061146d565b5b509050611496919061149a565b5090565b6114bc91905b808211156114b85760008160009055506001016114a0565b5090565b905600a165627a7a7230582015ad06271312d2ab23e46725f3df9ca69b069e9bca4d10d4e24a1ac19d4cb4eb0029a165627a7a72305820189dfd72ce1332ce0a23c3d94e9f5c4475158607f06a38be495eda75a67e4f330029",
  "source": "pragma solidity 0.4.24;\n\nimport './Campaign.sol';\nimport \"./ILighthouse.sol\";\ncontract CampaignFactory{\n\n    ILighthouse  public myLighthouse;\n    \n    address[] public campaigns;\n    uint private USDValue;\n    bool private ok;\n\n    \n    constructor (ILighthouse _myLighthouse) public{\n         myLighthouse = _myLighthouse;\n    }\n    /**\n    @notice This function helps to create campaigns and adds to a array\n    @param minimumContribution Minimum Contribution required for this campaign\n    @param imgHash IPFS hash of the banner image\n     */\n    function createCampaign(uint minimumContribution,string imgHash, string campaignName) public {\n        (USDValue,ok)=myLighthouse.peekData();\n        address newCampaign = new Campaign(minimumContribution,msg.sender,imgHash, campaignName,USDValue);\n        campaigns.push(newCampaign);\n    }\n    /**\n    @notice Returns an array of deployed campaigns\n    @dev used memory for the argument to save on gas\n     */\n    function getDeployedCampaigns() public view returns(address[] memory){\n        return campaigns;\n    }\n    \n}",
  "sourcePath": "/Users/siva/EtherProjects/Campaign/contracts/CampaignFactory.sol",
  "compiler": {
    "name": "solc",
    "version": "0.4.24+commit.e67f0147.Emscripten.clang"
  },
  "schemaVersion": "2.0.1",
  "updatedAt": "2019-02-17T03:10:51.390Z"
}