{
  "contractName": "RhombusClient",
  "abi": [
    {
      "constant": true,
      "inputs": [],
      "name": "owner",
      "outputs": [
        {
          "name": "",
          "type": "address"
        }
      ],
      "payable": false,
      "stateMutability": "view",
      "type": "function"
    },
    {
      "constant": true,
      "inputs": [],
      "name": "RhombusOracle",
      "outputs": [
        {
          "name": "",
          "type": "address"
        }
      ],
      "payable": false,
      "stateMutability": "view",
      "type": "function"
    },
    {
      "constant": true,
      "inputs": [],
      "name": "RhombusNonce",
      "outputs": [
        {
          "name": "",
          "type": "uint256"
        }
      ],
      "payable": false,
      "stateMutability": "view",
      "type": "function"
    },
    {
      "anonymous": false,
      "inputs": [
        {
          "indexed": false,
          "name": "nonce",
          "type": "uint256"
        },
        {
          "indexed": false,
          "name": "ID",
          "type": "uint256"
        }
      ],
      "name": "rhombusRequest",
      "type": "event"
    },
    {
      "anonymous": false,
      "inputs": [
        {
          "indexed": false,
          "name": "nonce",
          "type": "uint256"
        },
        {
          "indexed": false,
          "name": "ID",
          "type": "uint256"
        },
        {
          "indexed": false,
          "name": "firstVar",
          "type": "uint256"
        }
      ],
      "name": "RhombusUint",
      "type": "event"
    },
    {
      "anonymous": false,
      "inputs": [
        {
          "indexed": false,
          "name": "nonce",
          "type": "uint256"
        },
        {
          "indexed": false,
          "name": "ID",
          "type": "uint256"
        },
        {
          "indexed": false,
          "name": "firstVar",
          "type": "uint256"
        },
        {
          "indexed": false,
          "name": "secondVar",
          "type": "uint256"
        }
      ],
      "name": "RhombusDoubleUint",
      "type": "event"
    },
    {
      "anonymous": false,
      "inputs": [
        {
          "indexed": false,
          "name": "nonce",
          "type": "uint256"
        },
        {
          "indexed": false,
          "name": "ID",
          "type": "uint256"
        },
        {
          "indexed": false,
          "name": "firstVar",
          "type": "address"
        },
        {
          "indexed": false,
          "name": "secondVar",
          "type": "uint256"
        },
        {
          "indexed": false,
          "name": "thirdVar",
          "type": "uint256"
        }
      ],
      "name": "RhombusAddrDoubleUint",
      "type": "event"
    },
    {
      "anonymous": false,
      "inputs": [
        {
          "indexed": false,
          "name": "nonce",
          "type": "uint256"
        },
        {
          "indexed": false,
          "name": "ID",
          "type": "uint256"
        },
        {
          "indexed": false,
          "name": "firstVar",
          "type": "address"
        },
        {
          "indexed": false,
          "name": "secondVar",
          "type": "uint256"
        },
        {
          "indexed": false,
          "name": "thirdVar",
          "type": "uint256"
        },
        {
          "indexed": false,
          "name": "fourthVar",
          "type": "uint256"
        }
      ],
      "name": "RhombusAddrTripleUint",
      "type": "event"
    },
    {
      "constant": false,
      "inputs": [
        {
          "name": "rhombus",
          "type": "address"
        }
      ],
      "name": "setRhombus",
      "outputs": [],
      "payable": false,
      "stateMutability": "nonpayable",
      "type": "function"
    }
  ],
  "bytecode": "0x6080604052336000806101000a81548173ffffffffffffffffffffffffffffffffffffffff021916908373ffffffffffffffffffffffffffffffffffffffff16021790555034801561005057600080fd5b50610308806100606000396000f300608060405260043610610062576000357c0100000000000000000000000000000000000000000000000000000000900463ffffffff1680638da5cb5b14610067578063aef8bd0c146100be578063eb52c20014610101578063fa01d18b14610158575b600080fd5b34801561007357600080fd5b5061007c610183565b604051808273ffffffffffffffffffffffffffffffffffffffff1673ffffffffffffffffffffffffffffffffffffffff16815260200191505060405180910390f35b3480156100ca57600080fd5b506100ff600480360381019080803573ffffffffffffffffffffffffffffffffffffffff1690602001909291905050506101a8565b005b34801561010d57600080fd5b506101166102b0565b604051808273ffffffffffffffffffffffffffffffffffffffff1673ffffffffffffffffffffffffffffffffffffffff16815260200191505060405180910390f35b34801561016457600080fd5b5061016d6102d6565b6040518082815260200191505060405180910390f35b6000809054906101000a900473ffffffffffffffffffffffffffffffffffffffff1681565b6000809054906101000a900473ffffffffffffffffffffffffffffffffffffffff1673ffffffffffffffffffffffffffffffffffffffff163373ffffffffffffffffffffffffffffffffffffffff1614151561026c576040517f08c379a000000000000000000000000000000000000000000000000000000000815260040180806020018281038252600c8152602001807f556e617574686f7269736564000000000000000000000000000000000000000081525060200191505060405180910390fd5b80600160006101000a81548173ffffffffffffffffffffffffffffffffffffffff021916908373ffffffffffffffffffffffffffffffffffffffff16021790555050565b600160009054906101000a900473ffffffffffffffffffffffffffffffffffffffff1681565b600254815600a165627a7a7230582056e297e11fb82109d482aa87a76d1534879006c61c28720631973d7d720898600029",
  "source": "pragma solidity ^0.4.24;\n\ncontract RhombusClient {\n    address public owner = msg.sender;\n    address public RhombusOracle;\n    uint    public RhombusNonce;\n    \n    event rhombusRequest(uint nonce, uint ID);\n\n    event RhombusUint(uint nonce, uint ID, uint firstVar);\n    event RhombusDoubleUint(uint nonce, uint ID, uint firstVar, uint secondVar);\n    event RhombusAddrDoubleUint(uint nonce, uint ID, address firstVar, uint secondVar, uint thirdVar);\n    event RhombusAddrTripleUint(uint nonce, uint ID, address firstVar, uint secondVar, uint thirdVar, uint fourthVar);\n    \n    modifier onlyOwner {\n        require(msg.sender == owner, \"Unauthorised\");\n        _;\n    }\n\n    modifier onlyRhombus {\n        require(msg.sender == RhombusOracle, \"Not a Rhombus Address\");\n        _;\n    }\n\n    function emitRequest(uint ID) internal {\n        emit rhombusRequest(RhombusNonce, ID);\n        RhombusNonce++;\n    }\n    \n    function emitUint(uint ID, uint var1) internal {\n        emit RhombusUint(RhombusNonce, ID, var1);\n        RhombusNonce++;\n    }\n\n    function emitDoubleUint(uint ID, uint var1, uint var2) internal {\n        emit RhombusDoubleUint(RhombusNonce, ID, var1, var2);\n        RhombusNonce++;\n    }\n    \n    function emitAddrDoubleUint(uint ID, address var1, uint var2, uint var3) internal {\n        emit RhombusAddrDoubleUint(RhombusNonce, ID, var1, var2, var3);\n        RhombusNonce++;\n    }\n    \n    function emitAddrTripleUint(uint ID, address var1, uint var2, uint var3, uint var4) internal {\n        emit RhombusAddrTripleUint(RhombusNonce, ID, var1, var2, var3, var4);\n        RhombusNonce++;\n    }\n\n    function setRhombus(address rhombus) public onlyOwner {\n        RhombusOracle = rhombus;\n    }\n\n}",
  "sourcePath": "/Users/siva/EtherProjects/Campaign/contracts/RhombusClient.sol",
  "compiler": {
    "name": "solc",
    "version": "0.4.24+commit.e67f0147.Emscripten.clang"
  },
  "schemaVersion": "2.0.1",
  "updatedAt": "2019-02-16T14:59:00.748Z"
}